{
  "contracts/ClimateWaiverEscrow.sol": {
    "ClimateWaiverEscrow": {
      "abi": [
        {
          "inputs": [
            {
              "internalType": "address",
              "name": "_dsxAddress",
              "type": "address"
            }
          ],
          "stateMutability": "nonpayable",
          "type": "constructor"
        },
        {
          "anonymous": false,
          "inputs": [
            {
              "indexed": true,
              "internalType": "uint256",
              "name": "incidentId",
              "type": "uint256"
            },
            {
              "indexed": false,
              "internalType": "address",
              "name": "recipient",
              "type": "address"
            },
            {
              "indexed": false,
              "internalType": "uint256",
              "name": "amount",
              "type": "uint256"
            }
          ],
          "name": "FundsClaimed",
          "type": "event"
        },
        {
          "anonymous": false,
          "inputs": [
            {
              "indexed": true,
              "internalType": "uint256",
              "name": "incidentId",
              "type": "uint256"
            },
            {
              "indexed": false,
              "internalType": "address",
              "name": "donor",
              "type": "address"
            },
            {
              "indexed": false,
              "internalType": "uint256",
              "name": "amount",
              "type": "uint256"
            }
          ],
          "name": "FundsRaised",
          "type": "event"
        },
        {
          "anonymous": false,
          "inputs": [
            {
              "indexed": true,
              "internalType": "uint256",
              "name": "incidentId",
              "type": "uint256"
            },
            {
              "indexed": false,
              "internalType": "address",
              "name": "reporter",
              "type": "address"
            },
            {
              "indexed": false,
              "internalType": "string",
              "name": "descriptionURL",
              "type": "string"
            },
            {
              "indexed": false,
              "internalType": "uint256",
              "name": "fundingGoal",
              "type": "uint256"
            }
          ],
          "name": "IncidentReported",
          "type": "event"
        },
        {
          "inputs": [
            {
              "internalType": "uint256",
              "name": "_incidentId",
              "type": "uint256"
            }
          ],
          "name": "claimFunds",
          "outputs": [],
          "stateMutability": "nonpayable",
          "type": "function"
        },
        {
          "inputs": [
            {
              "internalType": "uint256",
              "name": "_incidentId",
              "type": "uint256"
            },
            {
              "internalType": "uint256",
              "name": "_amount",
              "type": "uint256"
            }
          ],
          "name": "donateToIncident",
          "outputs": [],
          "stateMutability": "nonpayable",
          "type": "function"
        },
        {
          "inputs": [],
          "name": "dsx",
          "outputs": [
            {
              "internalType": "contract DisaXta",
              "name": "",
              "type": "address"
            }
          ],
          "stateMutability": "view",
          "type": "function"
        },
        {
          "inputs": [],
          "name": "getAllIncidentsWithDonors",
          "outputs": [
            {
              "components": [
                {
                  "internalType": "uint256",
                  "name": "incidentId",
                  "type": "uint256"
                },
                {
                  "internalType": "address",
                  "name": "reporter",
                  "type": "address"
                },
                {
                  "internalType": "string",
                  "name": "descriptionURL",
                  "type": "string"
                },
                {
                  "internalType": "uint256",
                  "name": "fundingGoal",
                  "type": "uint256"
                },
                {
                  "internalType": "uint256",
                  "name": "raisedAmount",
                  "type": "uint256"
                },
                {
                  "internalType": "bool",
                  "name": "isClaimed",
                  "type": "bool"
                },
                {
                  "components": [
                    {
                      "internalType": "address",
                      "name": "donorAddress",
                      "type": "address"
                    },
                    {
                      "internalType": "uint256",
                      "name": "amount",
                      "type": "uint256"
                    }
                  ],
                  "internalType": "struct ClimateWaiverEscrow.Donor[]",
                  "name": "donors",
                  "type": "tuple[]"
                }
              ],
              "internalType": "struct ClimateWaiverEscrow.Incident[]",
              "name": "",
              "type": "tuple[]"
            }
          ],
          "stateMutability": "view",
          "type": "function"
        },
        {
          "inputs": [
            {
              "internalType": "uint256",
              "name": "_incidentId",
              "type": "uint256"
            },
            {
              "internalType": "address",
              "name": "_donor",
              "type": "address"
            }
          ],
          "name": "getDonationAmount",
          "outputs": [
            {
              "internalType": "uint256",
              "name": "",
              "type": "uint256"
            }
          ],
          "stateMutability": "view",
          "type": "function"
        },
        {
          "inputs": [
            {
              "internalType": "uint256",
              "name": "_incidentId",
              "type": "uint256"
            }
          ],
          "name": "getDonorsForIncident",
          "outputs": [
            {
              "components": [
                {
                  "internalType": "address",
                  "name": "donorAddress",
                  "type": "address"
                },
                {
                  "internalType": "uint256",
                  "name": "amount",
                  "type": "uint256"
                }
              ],
              "internalType": "struct ClimateWaiverEscrow.Donor[]",
              "name": "",
              "type": "tuple[]"
            }
          ],
          "stateMutability": "view",
          "type": "function"
        },
        {
          "inputs": [
            {
              "internalType": "uint256",
              "name": "_incidentId",
              "type": "uint256"
            }
          ],
          "name": "getIncidentDetails",
          "outputs": [
            {
              "internalType": "address",
              "name": "reporter",
              "type": "address"
            },
            {
              "internalType": "string",
              "name": "descriptionURL",
              "type": "string"
            },
            {
              "internalType": "uint256",
              "name": "fundingGoal",
              "type": "uint256"
            },
            {
              "internalType": "uint256",
              "name": "raisedAmount",
              "type": "uint256"
            },
            {
              "internalType": "bool",
              "name": "isClaimed",
              "type": "bool"
            }
          ],
          "stateMutability": "view",
          "type": "function"
        },
        {
          "inputs": [],
          "name": "getTotalFundsRaised",
          "outputs": [
            {
              "internalType": "uint256",
              "name": "",
              "type": "uint256"
            }
          ],
          "stateMutability": "view",
          "type": "function"
        },
        {
          "inputs": [],
          "name": "getTotalUniqueDonors",
          "outputs": [
            {
              "internalType": "uint256",
              "name": "",
              "type": "uint256"
            }
          ],
          "stateMutability": "view",
          "type": "function"
        },
        {
          "inputs": [],
          "name": "incidentCount",
          "outputs": [
            {
              "internalType": "uint256",
              "name": "",
              "type": "uint256"
            }
          ],
          "stateMutability": "view",
          "type": "function"
        },
        {
          "inputs": [
            {
              "internalType": "string",
              "name": "_descriptionURL",
              "type": "string"
            },
            {
              "internalType": "uint256",
              "name": "_fundingGoal",
              "type": "uint256"
            }
          ],
          "name": "reportIncident",
          "outputs": [],
          "stateMutability": "nonpayable",
          "type": "function"
        }
      ],
      "evm": {
        "bytecode": {
          "linkReferences": {},
          "object": "60806040523480156200001157600080fd5b5060405162002324380380620023248339818101604052810190620000379190620000e8565b806000806101000a81548173ffffffffffffffffffffffffffffffffffffffff021916908373ffffffffffffffffffffffffffffffffffffffff160217905550506200011a565b600080fd5b600073ffffffffffffffffffffffffffffffffffffffff82169050919050565b6000620000b08262000083565b9050919050565b620000c281620000a3565b8114620000ce57600080fd5b50565b600081519050620000e281620000b7565b92915050565b6000602082840312156200010157620001006200007e565b5b60006200011184828501620000d1565b91505092915050565b6121fa806200012a6000396000f3fe608060405234801561001057600080fd5b50600436106100a95760003560e01c80639485472511610071578063948547251461016a578063a09b86ac14610188578063c40cce5e146101a6578063d6f8b86f146101c2578063e2c61e60146101e0578063e43826d8146101fc576100a9565b80630c3e2d2d146100ae5780631b55e338146100cc5780631e6420ee146100e8578063207c67c41461011c5780633b0856801461014c575b600080fd5b6100b661022c565b6040516100c391906112b7565b60405180910390f35b6100e660048036038101906100e19190611312565b610282565b005b61010260048036038101906100fd9190611312565b610557565b60405161011395949392919061142b565b60405180910390f35b61013660048036038101906101319190611312565b6106ad565b6040516101439190611581565b60405180910390f35b6101546107d3565b60405161016191906112b7565b60405180910390f35b6101726107dd565b60405161017f91906117d0565b60405180910390f35b610190610a8c565b60405161019d91906112b7565b60405180910390f35b6101c060048036038101906101bb9190611927565b610a92565b005b6101ca610b96565b6040516101d791906119e2565b60405180910390f35b6101fa60048036038101906101f591906119fd565b610bba565b005b61021660048036038101906102119190611a69565b610f4f565b60405161022391906112b7565b60405180910390f35b600080600090506000600190505b600354811161027a576002600082815260200190815260200160002060040154826102659190611ad8565b9150808061027290611b0c565b91505061023a565b508091505090565b60035481111580156102945750600081115b6102d3576040517f08c379a00000000000000000000000000000000000000000000000000000000081526004016102ca90611ba0565b60405180910390fd5b60006002600083815260200190815260200160002090508060010160009054906101000a900473ffffffffffffffffffffffffffffffffffffffff1673ffffffffffffffffffffffffffffffffffffffff163373ffffffffffffffffffffffffffffffffffffffff161461037c576040517f08c379a000000000000000000000000000000000000000000000000000000000815260040161037390611c32565b60405180910390fd5b8060050160009054906101000a900460ff16156103ce576040517f08c379a00000000000000000000000000000000000000000000000000000000081526004016103c590611c9e565b60405180910390fd5b6000816004015411610415576040517f08c379a000000000000000000000000000000000000000000000000000000000815260040161040c90611d0a565b60405180910390fd5b60008160040154905060018260050160006101000a81548160ff02191690831515021790555060008054906101000a900473ffffffffffffffffffffffffffffffffffffffff1673ffffffffffffffffffffffffffffffffffffffff1663a9059cbb33836040518363ffffffff1660e01b8152600401610496929190611d2a565b6020604051808303816000875af11580156104b5573d6000803e3d6000fd5b505050506040513d601f19601f820116820180604052508101906104d99190611d7f565b610518576040517f08c379a000000000000000000000000000000000000000000000000000000000815260040161050f90611df8565b60405180910390fd5b827fa4eb50103b0591feb0bc913f479d92af5eb7ea33e8c397b49bab52ce6af26cb5338360405161054a929190611d2a565b60405180910390a2505050565b60006060600080600060035486111580156105725750600086115b6105b1576040517f08c379a00000000000000000000000000000000000000000000000000000000081526004016105a890611ba0565b60405180910390fd5b60006002600088815260200190815260200160002090508060010160009054906101000a900473ffffffffffffffffffffffffffffffffffffffff1681600201826003015483600401548460050160009054906101000a900460ff1683805461061990611e47565b80601f016020809104026020016040519081016040528092919081815260200182805461064590611e47565b80156106925780601f1061066757610100808354040283529160200191610692565b820191906000526020600020905b81548152906001019060200180831161067557829003601f168201915b50505050509350955095509550955095505091939590929450565b606060035482111580156106c15750600082115b610700576040517f08c379a00000000000000000000000000000000000000000000000000000000081526004016106f790611ba0565b60405180910390fd5b60026000838152602001908152602001600020600601805480602002602001604051908101604052809291908181526020016000905b828210156107c857838290600052602060002090600202016040518060400160405290816000820160009054906101000a900473ffffffffffffffffffffffffffffffffffffffff1673ffffffffffffffffffffffffffffffffffffffff1673ffffffffffffffffffffffffffffffffffffffff16815260200160018201548152505081526020019060010190610736565b505050509050919050565b6000600454905090565b6060600060035467ffffffffffffffff8111156107fd576107fc6117fc565b5b60405190808252806020026020018201604052801561083657816020015b610823611249565b81526020019060019003908161081b5790505b5090506000600190505b6003548111610a8457600260008281526020019081526020016000206040518060e0016040529081600082015481526020016001820160009054906101000a900473ffffffffffffffffffffffffffffffffffffffff1673ffffffffffffffffffffffffffffffffffffffff1673ffffffffffffffffffffffffffffffffffffffff1681526020016002820180546108d790611e47565b80601f016020809104026020016040519081016040528092919081815260200182805461090390611e47565b80156109505780601f1061092557610100808354040283529160200191610950565b820191906000526020600020905b81548152906001019060200180831161093357829003601f168201915b5050505050815260200160038201548152602001600482015481526020016005820160009054906101000a900460ff1615151515815260200160068201805480602002602001604051908101604052809291908181526020016000905b82821015610a3f57838290600052602060002090600202016040518060400160405290816000820160009054906101000a900473ffffffffffffffffffffffffffffffffffffffff1673ffffffffffffffffffffffffffffffffffffffff1673ffffffffffffffffffffffffffffffffffffffff168152602001600182015481525050815260200190600101906109ad565b505050508152505082600183610a559190611e78565b81518110610a6657610a65611eac565b5b60200260200101819052508080610a7c90611b0c565b915050610840565b508091505090565b60035481565b60036000815480929190610aa590611b0c565b9190505550600060026000600354815260200190815260200160002090506003548160000181905550338160010160006101000a81548173ffffffffffffffffffffffffffffffffffffffff021916908373ffffffffffffffffffffffffffffffffffffffff16021790555082816002019081610b22919061207d565b508181600301819055506000816004018190555060008160050160006101000a81548160ff0219169083151502179055506003547f3ff508bdf2223eed90b0fe0e0d9336f1d8398777e66810012410bd4af5254646338585604051610b899392919061214f565b60405180910390a2505050565b60008054906101000a900473ffffffffffffffffffffffffffffffffffffffff1681565b6003548211158015610bcc5750600082115b610c0b576040517f08c379a0000000000000000000000000000000000000000000000000000000008152600401610c0290611ba0565b60405180910390fd5b60006002600084815260200190815260200160002090508060050160009054906101000a900460ff1615610c74576040517f08c379a0000000000000000000000000000000000000000000000000000000008152600401610c6b90611c9e565b60405180910390fd5b60008054906101000a900473ffffffffffffffffffffffffffffffffffffffff1673ffffffffffffffffffffffffffffffffffffffff166323b872dd3330856040518463ffffffff1660e01b8152600401610cd19392919061218d565b6020604051808303816000875af1158015610cf0573d6000803e3d6000fd5b505050506040513d601f19601f82011682018060405250810190610d149190611d7f565b610d53576040517f08c379a0000000000000000000000000000000000000000000000000000000008152600401610d4a90611df8565b60405180910390fd5b6000805b8260060180549050811015610e3a573373ffffffffffffffffffffffffffffffffffffffff16836006018281548110610d9357610d92611eac565b5b906000526020600020906002020160000160009054906101000a900473ffffffffffffffffffffffffffffffffffffffff1673ffffffffffffffffffffffffffffffffffffffff1603610e275783836006018281548110610df757610df6611eac565b5b90600052602060002090600202016001016000828254610e179190611ad8565b9250508190555060019150610e3a565b8080610e3290611b0c565b915050610d57565b5080610eec578160060160405180604001604052803373ffffffffffffffffffffffffffffffffffffffff16815260200185815250908060018154018082558091505060019003906000526020600020906002020160009091909190915060008201518160000160006101000a81548173ffffffffffffffffffffffffffffffffffffffff021916908373ffffffffffffffffffffffffffffffffffffffff1602179055506020820151816001015550505b82826004016000828254610f009190611ad8565b92505081905550610f0f611096565b837fa1a7367b808c679c56e9c640d9cbca96f06689942487a0ed43593201f722718a3385604051610f41929190611d2a565b60405180910390a250505050565b60006003548311158015610f635750600083115b610fa2576040517f08c379a0000000000000000000000000000000000000000000000000000000008152600401610f9990611ba0565b60405180910390fd5b600060026000858152602001908152602001600020905060005b8160060180549050811015611089578373ffffffffffffffffffffffffffffffffffffffff16826006018281548110610ff857610ff7611eac565b5b906000526020600020906002020160000160009054906101000a900473ffffffffffffffffffffffffffffffffffffffff1673ffffffffffffffffffffffffffffffffffffffff16036110765781600601818154811061105b5761105a611eac565b5b90600052602060002090600202016001015492505050611090565b808061108190611b0c565b915050610fbc565b5060009150505b92915050565b6000600190505b600354811161124657600060026000838152602001908152602001600020905060005b816006018054905081101561123157600160008360060183815481106110e9576110e8611eac565b5b906000526020600020906002020160000160009054906101000a900473ffffffffffffffffffffffffffffffffffffffff1673ffffffffffffffffffffffffffffffffffffffff1673ffffffffffffffffffffffffffffffffffffffff16815260200190815260200160002060009054906101000a900460ff1661121e57600180600084600601848154811061118257611181611eac565b5b906000526020600020906002020160000160009054906101000a900473ffffffffffffffffffffffffffffffffffffffff1673ffffffffffffffffffffffffffffffffffffffff1673ffffffffffffffffffffffffffffffffffffffff16815260200190815260200160002060006101000a81548160ff0219169083151502179055506004600081548092919061121890611b0c565b91905055505b808061122990611b0c565b9150506110c0565b5050808061123e90611b0c565b91505061109d565b50565b6040518060e0016040528060008152602001600073ffffffffffffffffffffffffffffffffffffffff168152602001606081526020016000815260200160008152602001600015158152602001606081525090565b6000819050919050565b6112b18161129e565b82525050565b60006020820190506112cc60008301846112a8565b92915050565b6000604051905090565b600080fd5b600080fd5b6112ef8161129e565b81146112fa57600080fd5b50565b60008135905061130c816112e6565b92915050565b600060208284031215611328576113276112dc565b5b6000611336848285016112fd565b91505092915050565b600073ffffffffffffffffffffffffffffffffffffffff82169050919050565b600061136a8261133f565b9050919050565b61137a8161135f565b82525050565b600081519050919050565b600082825260208201905092915050565b60005b838110156113ba57808201518184015260208101905061139f565b60008484015250505050565b6000601f19601f8301169050919050565b60006113e282611380565b6113ec818561138b565b93506113fc81856020860161139c565b611405816113c6565b840191505092915050565b60008115159050919050565b61142581611410565b82525050565b600060a0820190506114406000830188611371565b818103602083015261145281876113d7565b905061146160408301866112a8565b61146e60608301856112a8565b61147b608083018461141c565b9695505050505050565b600081519050919050565b600082825260208201905092915050565b6000819050602082019050919050565b6114ba8161135f565b82525050565b6114c98161129e565b82525050565b6040820160008201516114e560008501826114b1565b5060208201516114f860208501826114c0565b50505050565b600061150a83836114cf565b60408301905092915050565b6000602082019050919050565b600061152e82611485565b6115388185611490565b9350611543836114a1565b8060005b8381101561157457815161155b88826114fe565b975061156683611516565b925050600181019050611547565b5085935050505092915050565b6000602082019050818103600083015261159b8184611523565b905092915050565b600081519050919050565b600082825260208201905092915050565b6000819050602082019050919050565b600082825260208201905092915050565b60006115eb82611380565b6115f581856115cf565b935061160581856020860161139c565b61160e816113c6565b840191505092915050565b61162281611410565b82525050565b600082825260208201905092915050565b600061164482611485565b61164e8185611628565b9350611659836114a1565b8060005b8381101561168a57815161167188826114fe565b975061167c83611516565b92505060018101905061165d565b5085935050505092915050565b600060e0830160008301516116af60008601826114c0565b5060208301516116c260208601826114b1565b50604083015184820360408601526116da82826115e0565b91505060608301516116ef60608601826114c0565b50608083015161170260808601826114c0565b5060a083015161171560a0860182611619565b5060c083015184820360c086015261172d8282611639565b9150508091505092915050565b60006117468383611697565b905092915050565b6000602082019050919050565b6000611766826115a3565b61177081856115ae565b935083602082028501611782856115bf565b8060005b858110156117be578484038952815161179f858261173a565b94506117aa8361174e565b925060208a01995050600181019050611786565b50829750879550505050505092915050565b600060208201905081810360008301526117ea818461175b565b905092915050565b600080fd5b600080fd5b7f4e487b7100000000000000000000000000000000000000000000000000000000600052604160045260246000fd5b611834826113c6565b810181811067ffffffffffffffff82111715611853576118526117fc565b5b80604052505050565b60006118666112d2565b9050611872828261182b565b919050565b600067ffffffffffffffff821115611892576118916117fc565b5b61189b826113c6565b9050602081019050919050565b82818337600083830152505050565b60006118ca6118c584611877565b61185c565b9050828152602081018484840111156118e6576118e56117f7565b5b6118f18482856118a8565b509392505050565b600082601f83011261190e5761190d6117f2565b5b813561191e8482602086016118b7565b91505092915050565b6000806040838503121561193e5761193d6112dc565b5b600083013567ffffffffffffffff81111561195c5761195b6112e1565b5b611968858286016118f9565b9250506020611979858286016112fd565b9150509250929050565b6000819050919050565b60006119a86119a361199e8461133f565b611983565b61133f565b9050919050565b60006119ba8261198d565b9050919050565b60006119cc826119af565b9050919050565b6119dc816119c1565b82525050565b60006020820190506119f760008301846119d3565b92915050565b60008060408385031215611a1457611a136112dc565b5b6000611a22858286016112fd565b9250506020611a33858286016112fd565b9150509250929050565b611a468161135f565b8114611a5157600080fd5b50565b600081359050611a6381611a3d565b92915050565b60008060408385031215611a8057611a7f6112dc565b5b6000611a8e858286016112fd565b9250506020611a9f85828601611a54565b9150509250929050565b7f4e487b7100000000000000000000000000000000000000000000000000000000600052601160045260246000fd5b6000611ae38261129e565b9150611aee8361129e565b9250828201905080821115611b0657611b05611aa9565b5b92915050565b6000611b178261129e565b91507fffffffffffffffffffffffffffffffffffffffffffffffffffffffffffffffff8203611b4957611b48611aa9565b5b600182019050919050565b7f496e76616c696420696e636964656e7420494400000000000000000000000000600082015250565b6000611b8a60138361138b565b9150611b9582611b54565b602082019050919050565b60006020820190508181036000830152611bb981611b7d565b9050919050565b7f4f6e6c792074686520696e636964656e74207265706f727465722063616e206360008201527f6c61696d2066756e647300000000000000000000000000000000000000000000602082015250565b6000611c1c602a8361138b565b9150611c2782611bc0565b604082019050919050565b60006020820190508181036000830152611c4b81611c0f565b9050919050565b7f46756e6473206861766520616c7265616479206265656e20636c61696d656400600082015250565b6000611c88601f8361138b565b9150611c9382611c52565b602082019050919050565b60006020820190508181036000830152611cb781611c7b565b9050919050565b7f4e6f2066756e647320617661696c61626c6520746f20636c61696d0000000000600082015250565b6000611cf4601b8361138b565b9150611cff82611cbe565b602082019050919050565b60006020820190508181036000830152611d2381611ce7565b9050919050565b6000604082019050611d3f6000830185611371565b611d4c60208301846112a8565b9392505050565b611d5c81611410565b8114611d6757600080fd5b50565b600081519050611d7981611d53565b92915050565b600060208284031215611d9557611d946112dc565b5b6000611da384828501611d6a565b91505092915050565b7f5472616e73666572206661696c65640000000000000000000000000000000000600082015250565b6000611de2600f8361138b565b9150611ded82611dac565b602082019050919050565b60006020820190508181036000830152611e1181611dd5565b9050919050565b7f4e487b7100000000000000000000000000000000000000000000000000000000600052602260045260246000fd5b60006002820490506001821680611e5f57607f821691505b602082108103611e7257611e71611e18565b5b50919050565b6000611e838261129e565b9150611e8e8361129e565b9250828203905081811115611ea657611ea5611aa9565b5b92915050565b7f4e487b7100000000000000000000000000000000000000000000000000000000600052603260045260246000fd5b60008190508160005260206000209050919050565b60006020601f8301049050919050565b600082821b905092915050565b600060088302611f3d7fffffffffffffffffffffffffffffffffffffffffffffffffffffffffffffffff82611f00565b611f478683611f00565b95508019841693508086168417925050509392505050565b6000611f7a611f75611f708461129e565b611983565b61129e565b9050919050565b6000819050919050565b611f9483611f5f565b611fa8611fa082611f81565b848454611f0d565b825550505050565b600090565b611fbd611fb0565b611fc8818484611f8b565b505050565b5b81811015611fec57611fe1600082611fb5565b600181019050611fce565b5050565b601f8211156120315761200281611edb565b61200b84611ef0565b8101602085101561201a578190505b61202e61202685611ef0565b830182611fcd565b50505b505050565b600082821c905092915050565b600061205460001984600802612036565b1980831691505092915050565b600061206d8383612043565b9150826002028217905092915050565b61208682611380565b67ffffffffffffffff81111561209f5761209e6117fc565b5b6120a98254611e47565b6120b4828285611ff0565b600060209050601f8311600181146120e757600084156120d5578287015190505b6120df8582612061565b865550612147565b601f1984166120f586611edb565b60005b8281101561211d578489015182556001820191506020850194506020810190506120f8565b8683101561213a5784890151612136601f891682612043565b8355505b6001600288020188555050505b505050505050565b60006060820190506121646000830186611371565b818103602083015261217681856113d7565b905061218560408301846112a8565b949350505050565b60006060820190506121a26000830186611371565b6121af6020830185611371565b6121bc60408301846112a8565b94935050505056fea2646970667358221220dd9c5fee25d14d0d5050b86607fd0deab831928ce86c389ec6a04a31903dccf464736f6c63430008140033",
          "opcodes": "PUSH1 0x80 PUSH1 0x40 MSTORE CALLVALUE DUP1 ISZERO PUSH3 0x11 JUMPI PUSH1 0x0 DUP1 REVERT JUMPDEST POP PUSH1 0x40 MLOAD PUSH3 0x2324 CODESIZE SUB DUP1 PUSH3 0x2324 DUP4 CODECOPY DUP2 DUP2 ADD PUSH1 0x40 MSTORE DUP2 ADD SWAP1 PUSH3 0x37 SWAP2 SWAP1 PUSH3 0xE8 JUMP JUMPDEST DUP1 PUSH1 0x0 DUP1 PUSH2 0x100 EXP DUP2 SLOAD DUP2 PUSH20 0xFFFFFFFFFFFFFFFFFFFFFFFFFFFFFFFFFFFFFFFF MUL NOT AND SWAP1 DUP4 PUSH20 0xFFFFFFFFFFFFFFFFFFFFFFFFFFFFFFFFFFFFFFFF AND MUL OR SWAP1 SSTORE POP POP PUSH3 0x11A JUMP JUMPDEST PUSH1 0x0 DUP1 REVERT JUMPDEST PUSH1 0x0 PUSH20 0xFFFFFFFFFFFFFFFFFFFFFFFFFFFFFFFFFFFFFFFF DUP3 AND SWAP1 POP SWAP2 SWAP1 POP JUMP JUMPDEST PUSH1 0x0 PUSH3 0xB0 DUP3 PUSH3 0x83 JUMP JUMPDEST SWAP1 POP SWAP2 SWAP1 POP JUMP JUMPDEST PUSH3 0xC2 DUP2 PUSH3 0xA3 JUMP JUMPDEST DUP2 EQ PUSH3 0xCE JUMPI PUSH1 0x0 DUP1 REVERT JUMPDEST POP JUMP JUMPDEST PUSH1 0x0 DUP2 MLOAD SWAP1 POP PUSH3 0xE2 DUP2 PUSH3 0xB7 JUMP JUMPDEST SWAP3 SWAP2 POP POP JUMP JUMPDEST PUSH1 0x0 PUSH1 0x20 DUP3 DUP5 SUB SLT ISZERO PUSH3 0x101 JUMPI PUSH3 0x100 PUSH3 0x7E JUMP JUMPDEST JUMPDEST PUSH1 0x0 PUSH3 0x111 DUP5 DUP3 DUP6 ADD PUSH3 0xD1 JUMP JUMPDEST SWAP2 POP POP SWAP3 SWAP2 POP POP JUMP JUMPDEST PUSH2 0x21FA DUP1 PUSH3 0x12A PUSH1 0x0 CODECOPY PUSH1 0x0 RETURN INVALID PUSH1 0x80 PUSH1 0x40 MSTORE CALLVALUE DUP1 ISZERO PUSH2 0x10 JUMPI PUSH1 0x0 DUP1 REVERT JUMPDEST POP PUSH1 0x4 CALLDATASIZE LT PUSH2 0xA9 JUMPI PUSH1 0x0 CALLDATALOAD PUSH1 0xE0 SHR DUP1 PUSH4 0x94854725 GT PUSH2 0x71 JUMPI DUP1 PUSH4 0x94854725 EQ PUSH2 0x16A JUMPI DUP1 PUSH4 0xA09B86AC EQ PUSH2 0x188 JUMPI DUP1 PUSH4 0xC40CCE5E EQ PUSH2 0x1A6 JUMPI DUP1 PUSH4 0xD6F8B86F EQ PUSH2 0x1C2 JUMPI DUP1 PUSH4 0xE2C61E60 EQ PUSH2 0x1E0 JUMPI DUP1 PUSH4 0xE43826D8 EQ PUSH2 0x1FC JUMPI PUSH2 0xA9 JUMP JUMPDEST DUP1 PUSH4 0xC3E2D2D EQ PUSH2 0xAE JUMPI DUP1 PUSH4 0x1B55E338 EQ PUSH2 0xCC JUMPI DUP1 PUSH4 0x1E6420EE EQ PUSH2 0xE8 JUMPI DUP1 PUSH4 0x207C67C4 EQ PUSH2 0x11C JUMPI DUP1 PUSH4 0x3B085680 EQ PUSH2 0x14C JUMPI JUMPDEST PUSH1 0x0 DUP1 REVERT JUMPDEST PUSH2 0xB6 PUSH2 0x22C JUMP JUMPDEST PUSH1 0x40 MLOAD PUSH2 0xC3 SWAP2 SWAP1 PUSH2 0x12B7 JUMP JUMPDEST PUSH1 0x40 MLOAD DUP1 SWAP2 SUB SWAP1 RETURN JUMPDEST PUSH2 0xE6 PUSH1 0x4 DUP1 CALLDATASIZE SUB DUP2 ADD SWAP1 PUSH2 0xE1 SWAP2 SWAP1 PUSH2 0x1312 JUMP JUMPDEST PUSH2 0x282 JUMP JUMPDEST STOP JUMPDEST PUSH2 0x102 PUSH1 0x4 DUP1 CALLDATASIZE SUB DUP2 ADD SWAP1 PUSH2 0xFD SWAP2 SWAP1 PUSH2 0x1312 JUMP JUMPDEST PUSH2 0x557 JUMP JUMPDEST PUSH1 0x40 MLOAD PUSH2 0x113 SWAP6 SWAP5 SWAP4 SWAP3 SWAP2 SWAP1 PUSH2 0x142B JUMP JUMPDEST PUSH1 0x40 MLOAD DUP1 SWAP2 SUB SWAP1 RETURN JUMPDEST PUSH2 0x136 PUSH1 0x4 DUP1 CALLDATASIZE SUB DUP2 ADD SWAP1 PUSH2 0x131 SWAP2 SWAP1 PUSH2 0x1312 JUMP JUMPDEST PUSH2 0x6AD JUMP JUMPDEST PUSH1 0x40 MLOAD PUSH2 0x143 SWAP2 SWAP1 PUSH2 0x1581 JUMP JUMPDEST PUSH1 0x40 MLOAD DUP1 SWAP2 SUB SWAP1 RETURN JUMPDEST PUSH2 0x154 PUSH2 0x7D3 JUMP JUMPDEST PUSH1 0x40 MLOAD PUSH2 0x161 SWAP2 SWAP1 PUSH2 0x12B7 JUMP JUMPDEST PUSH1 0x40 MLOAD DUP1 SWAP2 SUB SWAP1 RETURN JUMPDEST PUSH2 0x172 PUSH2 0x7DD JUMP JUMPDEST PUSH1 0x40 MLOAD PUSH2 0x17F SWAP2 SWAP1 PUSH2 0x17D0 JUMP JUMPDEST PUSH1 0x40 MLOAD DUP1 SWAP2 SUB SWAP1 RETURN JUMPDEST PUSH2 0x190 PUSH2 0xA8C JUMP JUMPDEST PUSH1 0x40 MLOAD PUSH2 0x19D SWAP2 SWAP1 PUSH2 0x12B7 JUMP JUMPDEST PUSH1 0x40 MLOAD DUP1 SWAP2 SUB SWAP1 RETURN JUMPDEST PUSH2 0x1C0 PUSH1 0x4 DUP1 CALLDATASIZE SUB DUP2 ADD SWAP1 PUSH2 0x1BB SWAP2 SWAP1 PUSH2 0x1927 JUMP JUMPDEST PUSH2 0xA92 JUMP JUMPDEST STOP JUMPDEST PUSH2 0x1CA PUSH2 0xB96 JUMP JUMPDEST PUSH1 0x40 MLOAD PUSH2 0x1D7 SWAP2 SWAP1 PUSH2 0x19E2 JUMP JUMPDEST PUSH1 0x40 MLOAD DUP1 SWAP2 SUB SWAP1 RETURN JUMPDEST PUSH2 0x1FA PUSH1 0x4 DUP1 CALLDATASIZE SUB DUP2 ADD SWAP1 PUSH2 0x1F5 SWAP2 SWAP1 PUSH2 0x19FD JUMP JUMPDEST PUSH2 0xBBA JUMP JUMPDEST STOP JUMPDEST PUSH2 0x216 PUSH1 0x4 DUP1 CALLDATASIZE SUB DUP2 ADD SWAP1 PUSH2 0x211 SWAP2 SWAP1 PUSH2 0x1A69 JUMP JUMPDEST PUSH2 0xF4F JUMP JUMPDEST PUSH1 0x40 MLOAD PUSH2 0x223 SWAP2 SWAP1 PUSH2 0x12B7 JUMP JUMPDEST PUSH1 0x40 MLOAD DUP1 SWAP2 SUB SWAP1 RETURN JUMPDEST PUSH1 0x0 DUP1 PUSH1 0x0 SWAP1 POP PUSH1 0x0 PUSH1 0x1 SWAP1 POP JUMPDEST PUSH1 0x3 SLOAD DUP2 GT PUSH2 0x27A JUMPI PUSH1 0x2 PUSH1 0x0 DUP3 DUP2 MSTORE PUSH1 0x20 ADD SWAP1 DUP2 MSTORE PUSH1 0x20 ADD PUSH1 0x0 KECCAK256 PUSH1 0x4 ADD SLOAD DUP3 PUSH2 0x265 SWAP2 SWAP1 PUSH2 0x1AD8 JUMP JUMPDEST SWAP2 POP DUP1 DUP1 PUSH2 0x272 SWAP1 PUSH2 0x1B0C JUMP JUMPDEST SWAP2 POP POP PUSH2 0x23A JUMP JUMPDEST POP DUP1 SWAP2 POP POP SWAP1 JUMP JUMPDEST PUSH1 0x3 SLOAD DUP2 GT ISZERO DUP1 ISZERO PUSH2 0x294 JUMPI POP PUSH1 0x0 DUP2 GT JUMPDEST PUSH2 0x2D3 JUMPI PUSH1 0x40 MLOAD PUSH32 0x8C379A000000000000000000000000000000000000000000000000000000000 DUP2 MSTORE PUSH1 0x4 ADD PUSH2 0x2CA SWAP1 PUSH2 0x1BA0 JUMP JUMPDEST PUSH1 0x40 MLOAD DUP1 SWAP2 SUB SWAP1 REVERT JUMPDEST PUSH1 0x0 PUSH1 0x2 PUSH1 0x0 DUP4 DUP2 MSTORE PUSH1 0x20 ADD SWAP1 DUP2 MSTORE PUSH1 0x20 ADD PUSH1 0x0 KECCAK256 SWAP1 POP DUP1 PUSH1 0x1 ADD PUSH1 0x0 SWAP1 SLOAD SWAP1 PUSH2 0x100 EXP SWAP1 DIV PUSH20 0xFFFFFFFFFFFFFFFFFFFFFFFFFFFFFFFFFFFFFFFF AND PUSH20 0xFFFFFFFFFFFFFFFFFFFFFFFFFFFFFFFFFFFFFFFF AND CALLER PUSH20 0xFFFFFFFFFFFFFFFFFFFFFFFFFFFFFFFFFFFFFFFF AND EQ PUSH2 0x37C JUMPI PUSH1 0x40 MLOAD PUSH32 0x8C379A000000000000000000000000000000000000000000000000000000000 DUP2 MSTORE PUSH1 0x4 ADD PUSH2 0x373 SWAP1 PUSH2 0x1C32 JUMP JUMPDEST PUSH1 0x40 MLOAD DUP1 SWAP2 SUB SWAP1 REVERT JUMPDEST DUP1 PUSH1 0x5 ADD PUSH1 0x0 SWAP1 SLOAD SWAP1 PUSH2 0x100 EXP SWAP1 DIV PUSH1 0xFF AND ISZERO PUSH2 0x3CE JUMPI PUSH1 0x40 MLOAD PUSH32 0x8C379A000000000000000000000000000000000000000000000000000000000 DUP2 MSTORE PUSH1 0x4 ADD PUSH2 0x3C5 SWAP1 PUSH2 0x1C9E JUMP JUMPDEST PUSH1 0x40 MLOAD DUP1 SWAP2 SUB SWAP1 REVERT JUMPDEST PUSH1 0x0 DUP2 PUSH1 0x4 ADD SLOAD GT PUSH2 0x415 JUMPI PUSH1 0x40 MLOAD PUSH32 0x8C379A000000000000000000000000000000000000000000000000000000000 DUP2 MSTORE PUSH1 0x4 ADD PUSH2 0x40C SWAP1 PUSH2 0x1D0A JUMP JUMPDEST PUSH1 0x40 MLOAD DUP1 SWAP2 SUB SWAP1 REVERT JUMPDEST PUSH1 0x0 DUP2 PUSH1 0x4 ADD SLOAD SWAP1 POP PUSH1 0x1 DUP3 PUSH1 0x5 ADD PUSH1 0x0 PUSH2 0x100 EXP DUP2 SLOAD DUP2 PUSH1 0xFF MUL NOT AND SWAP1 DUP4 ISZERO ISZERO MUL OR SWAP1 SSTORE POP PUSH1 0x0 DUP1 SLOAD SWAP1 PUSH2 0x100 EXP SWAP1 DIV PUSH20 0xFFFFFFFFFFFFFFFFFFFFFFFFFFFFFFFFFFFFFFFF AND PUSH20 0xFFFFFFFFFFFFFFFFFFFFFFFFFFFFFFFFFFFFFFFF AND PUSH4 0xA9059CBB CALLER DUP4 PUSH1 0x40 MLOAD DUP4 PUSH4 0xFFFFFFFF AND PUSH1 0xE0 SHL DUP2 MSTORE PUSH1 0x4 ADD PUSH2 0x496 SWAP3 SWAP2 SWAP1 PUSH2 0x1D2A JUMP JUMPDEST PUSH1 0x20 PUSH1 0x40 MLOAD DUP1 DUP4 SUB DUP2 PUSH1 0x0 DUP8 GAS CALL ISZERO DUP1 ISZERO PUSH2 0x4B5 JUMPI RETURNDATASIZE PUSH1 0x0 DUP1 RETURNDATACOPY RETURNDATASIZE PUSH1 0x0 REVERT JUMPDEST POP POP POP POP PUSH1 0x40 MLOAD RETURNDATASIZE PUSH1 0x1F NOT PUSH1 0x1F DUP3 ADD AND DUP3 ADD DUP1 PUSH1 0x40 MSTORE POP DUP2 ADD SWAP1 PUSH2 0x4D9 SWAP2 SWAP1 PUSH2 0x1D7F JUMP JUMPDEST PUSH2 0x518 JUMPI PUSH1 0x40 MLOAD PUSH32 0x8C379A000000000000000000000000000000000000000000000000000000000 DUP2 MSTORE PUSH1 0x4 ADD PUSH2 0x50F SWAP1 PUSH2 0x1DF8 JUMP JUMPDEST PUSH1 0x40 MLOAD DUP1 SWAP2 SUB SWAP1 REVERT JUMPDEST DUP3 PUSH32 0xA4EB50103B0591FEB0BC913F479D92AF5EB7EA33E8C397B49BAB52CE6AF26CB5 CALLER DUP4 PUSH1 0x40 MLOAD PUSH2 0x54A SWAP3 SWAP2 SWAP1 PUSH2 0x1D2A JUMP JUMPDEST PUSH1 0x40 MLOAD DUP1 SWAP2 SUB SWAP1 LOG2 POP POP POP JUMP JUMPDEST PUSH1 0x0 PUSH1 0x60 PUSH1 0x0 DUP1 PUSH1 0x0 PUSH1 0x3 SLOAD DUP7 GT ISZERO DUP1 ISZERO PUSH2 0x572 JUMPI POP PUSH1 0x0 DUP7 GT JUMPDEST PUSH2 0x5B1 JUMPI PUSH1 0x40 MLOAD PUSH32 0x8C379A000000000000000000000000000000000000000000000000000000000 DUP2 MSTORE PUSH1 0x4 ADD PUSH2 0x5A8 SWAP1 PUSH2 0x1BA0 JUMP JUMPDEST PUSH1 0x40 MLOAD DUP1 SWAP2 SUB SWAP1 REVERT JUMPDEST PUSH1 0x0 PUSH1 0x2 PUSH1 0x0 DUP9 DUP2 MSTORE PUSH1 0x20 ADD SWAP1 DUP2 MSTORE PUSH1 0x20 ADD PUSH1 0x0 KECCAK256 SWAP1 POP DUP1 PUSH1 0x1 ADD PUSH1 0x0 SWAP1 SLOAD SWAP1 PUSH2 0x100 EXP SWAP1 DIV PUSH20 0xFFFFFFFFFFFFFFFFFFFFFFFFFFFFFFFFFFFFFFFF AND DUP2 PUSH1 0x2 ADD DUP3 PUSH1 0x3 ADD SLOAD DUP4 PUSH1 0x4 ADD SLOAD DUP5 PUSH1 0x5 ADD PUSH1 0x0 SWAP1 SLOAD SWAP1 PUSH2 0x100 EXP SWAP1 DIV PUSH1 0xFF AND DUP4 DUP1 SLOAD PUSH2 0x619 SWAP1 PUSH2 0x1E47 JUMP JUMPDEST DUP1 PUSH1 0x1F ADD PUSH1 0x20 DUP1 SWAP2 DIV MUL PUSH1 0x20 ADD PUSH1 0x40 MLOAD SWAP1 DUP2 ADD PUSH1 0x40 MSTORE DUP1 SWAP3 SWAP2 SWAP1 DUP2 DUP2 MSTORE PUSH1 0x20 ADD DUP3 DUP1 SLOAD PUSH2 0x645 SWAP1 PUSH2 0x1E47 JUMP JUMPDEST DUP1 ISZERO PUSH2 0x692 JUMPI DUP1 PUSH1 0x1F LT PUSH2 0x667 JUMPI PUSH2 0x100 DUP1 DUP4 SLOAD DIV MUL DUP4 MSTORE SWAP2 PUSH1 0x20 ADD SWAP2 PUSH2 0x692 JUMP JUMPDEST DUP3 ADD SWAP2 SWAP1 PUSH1 0x0 MSTORE PUSH1 0x20 PUSH1 0x0 KECCAK256 SWAP1 JUMPDEST DUP2 SLOAD DUP2 MSTORE SWAP1 PUSH1 0x1 ADD SWAP1 PUSH1 0x20 ADD DUP1 DUP4 GT PUSH2 0x675 JUMPI DUP3 SWAP1 SUB PUSH1 0x1F AND DUP3 ADD SWAP2 JUMPDEST POP POP POP POP POP SWAP4 POP SWAP6 POP SWAP6 POP SWAP6 POP SWAP6 POP SWAP6 POP POP SWAP2 SWAP4 SWAP6 SWAP1 SWAP3 SWAP5 POP JUMP JUMPDEST PUSH1 0x60 PUSH1 0x3 SLOAD DUP3 GT ISZERO DUP1 ISZERO PUSH2 0x6C1 JUMPI POP PUSH1 0x0 DUP3 GT JUMPDEST PUSH2 0x700 JUMPI PUSH1 0x40 MLOAD PUSH32 0x8C379A000000000000000000000000000000000000000000000000000000000 DUP2 MSTORE PUSH1 0x4 ADD PUSH2 0x6F7 SWAP1 PUSH2 0x1BA0 JUMP JUMPDEST PUSH1 0x40 MLOAD DUP1 SWAP2 SUB SWAP1 REVERT JUMPDEST PUSH1 0x2 PUSH1 0x0 DUP4 DUP2 MSTORE PUSH1 0x20 ADD SWAP1 DUP2 MSTORE PUSH1 0x20 ADD PUSH1 0x0 KECCAK256 PUSH1 0x6 ADD DUP1 SLOAD DUP1 PUSH1 0x20 MUL PUSH1 0x20 ADD PUSH1 0x40 MLOAD SWAP1 DUP2 ADD PUSH1 0x40 MSTORE DUP1 SWAP3 SWAP2 SWAP1 DUP2 DUP2 MSTORE PUSH1 0x20 ADD PUSH1 0x0 SWAP1 JUMPDEST DUP3 DUP3 LT ISZERO PUSH2 0x7C8 JUMPI DUP4 DUP3 SWAP1 PUSH1 0x0 MSTORE PUSH1 0x20 PUSH1 0x0 KECCAK256 SWAP1 PUSH1 0x2 MUL ADD PUSH1 0x40 MLOAD DUP1 PUSH1 0x40 ADD PUSH1 0x40 MSTORE SWAP1 DUP2 PUSH1 0x0 DUP3 ADD PUSH1 0x0 SWAP1 SLOAD SWAP1 PUSH2 0x100 EXP SWAP1 DIV PUSH20 0xFFFFFFFFFFFFFFFFFFFFFFFFFFFFFFFFFFFFFFFF AND PUSH20 0xFFFFFFFFFFFFFFFFFFFFFFFFFFFFFFFFFFFFFFFF AND PUSH20 0xFFFFFFFFFFFFFFFFFFFFFFFFFFFFFFFFFFFFFFFF AND DUP2 MSTORE PUSH1 0x20 ADD PUSH1 0x1 DUP3 ADD SLOAD DUP2 MSTORE POP POP DUP2 MSTORE PUSH1 0x20 ADD SWAP1 PUSH1 0x1 ADD SWAP1 PUSH2 0x736 JUMP JUMPDEST POP POP POP POP SWAP1 POP SWAP2 SWAP1 POP JUMP JUMPDEST PUSH1 0x0 PUSH1 0x4 SLOAD SWAP1 POP SWAP1 JUMP JUMPDEST PUSH1 0x60 PUSH1 0x0 PUSH1 0x3 SLOAD PUSH8 0xFFFFFFFFFFFFFFFF DUP2 GT ISZERO PUSH2 0x7FD JUMPI PUSH2 0x7FC PUSH2 0x17FC JUMP JUMPDEST JUMPDEST PUSH1 0x40 MLOAD SWAP1 DUP1 DUP3 MSTORE DUP1 PUSH1 0x20 MUL PUSH1 0x20 ADD DUP3 ADD PUSH1 0x40 MSTORE DUP1 ISZERO PUSH2 0x836 JUMPI DUP2 PUSH1 0x20 ADD JUMPDEST PUSH2 0x823 PUSH2 0x1249 JUMP JUMPDEST DUP2 MSTORE PUSH1 0x20 ADD SWAP1 PUSH1 0x1 SWAP1 SUB SWAP1 DUP2 PUSH2 0x81B JUMPI SWAP1 POP JUMPDEST POP SWAP1 POP PUSH1 0x0 PUSH1 0x1 SWAP1 POP JUMPDEST PUSH1 0x3 SLOAD DUP2 GT PUSH2 0xA84 JUMPI PUSH1 0x2 PUSH1 0x0 DUP3 DUP2 MSTORE PUSH1 0x20 ADD SWAP1 DUP2 MSTORE PUSH1 0x20 ADD PUSH1 0x0 KECCAK256 PUSH1 0x40 MLOAD DUP1 PUSH1 0xE0 ADD PUSH1 0x40 MSTORE SWAP1 DUP2 PUSH1 0x0 DUP3 ADD SLOAD DUP2 MSTORE PUSH1 0x20 ADD PUSH1 0x1 DUP3 ADD PUSH1 0x0 SWAP1 SLOAD SWAP1 PUSH2 0x100 EXP SWAP1 DIV PUSH20 0xFFFFFFFFFFFFFFFFFFFFFFFFFFFFFFFFFFFFFFFF AND PUSH20 0xFFFFFFFFFFFFFFFFFFFFFFFFFFFFFFFFFFFFFFFF AND PUSH20 0xFFFFFFFFFFFFFFFFFFFFFFFFFFFFFFFFFFFFFFFF AND DUP2 MSTORE PUSH1 0x20 ADD PUSH1 0x2 DUP3 ADD DUP1 SLOAD PUSH2 0x8D7 SWAP1 PUSH2 0x1E47 JUMP JUMPDEST DUP1 PUSH1 0x1F ADD PUSH1 0x20 DUP1 SWAP2 DIV MUL PUSH1 0x20 ADD PUSH1 0x40 MLOAD SWAP1 DUP2 ADD PUSH1 0x40 MSTORE DUP1 SWAP3 SWAP2 SWAP1 DUP2 DUP2 MSTORE PUSH1 0x20 ADD DUP3 DUP1 SLOAD PUSH2 0x903 SWAP1 PUSH2 0x1E47 JUMP JUMPDEST DUP1 ISZERO PUSH2 0x950 JUMPI DUP1 PUSH1 0x1F LT PUSH2 0x925 JUMPI PUSH2 0x100 DUP1 DUP4 SLOAD DIV MUL DUP4 MSTORE SWAP2 PUSH1 0x20 ADD SWAP2 PUSH2 0x950 JUMP JUMPDEST DUP3 ADD SWAP2 SWAP1 PUSH1 0x0 MSTORE PUSH1 0x20 PUSH1 0x0 KECCAK256 SWAP1 JUMPDEST DUP2 SLOAD DUP2 MSTORE SWAP1 PUSH1 0x1 ADD SWAP1 PUSH1 0x20 ADD DUP1 DUP4 GT PUSH2 0x933 JUMPI DUP3 SWAP1 SUB PUSH1 0x1F AND DUP3 ADD SWAP2 JUMPDEST POP POP POP POP POP DUP2 MSTORE PUSH1 0x20 ADD PUSH1 0x3 DUP3 ADD SLOAD DUP2 MSTORE PUSH1 0x20 ADD PUSH1 0x4 DUP3 ADD SLOAD DUP2 MSTORE PUSH1 0x20 ADD PUSH1 0x5 DUP3 ADD PUSH1 0x0 SWAP1 SLOAD SWAP1 PUSH2 0x100 EXP SWAP1 DIV PUSH1 0xFF AND ISZERO ISZERO ISZERO ISZERO DUP2 MSTORE PUSH1 0x20 ADD PUSH1 0x6 DUP3 ADD DUP1 SLOAD DUP1 PUSH1 0x20 MUL PUSH1 0x20 ADD PUSH1 0x40 MLOAD SWAP1 DUP2 ADD PUSH1 0x40 MSTORE DUP1 SWAP3 SWAP2 SWAP1 DUP2 DUP2 MSTORE PUSH1 0x20 ADD PUSH1 0x0 SWAP1 JUMPDEST DUP3 DUP3 LT ISZERO PUSH2 0xA3F JUMPI DUP4 DUP3 SWAP1 PUSH1 0x0 MSTORE PUSH1 0x20 PUSH1 0x0 KECCAK256 SWAP1 PUSH1 0x2 MUL ADD PUSH1 0x40 MLOAD DUP1 PUSH1 0x40 ADD PUSH1 0x40 MSTORE SWAP1 DUP2 PUSH1 0x0 DUP3 ADD PUSH1 0x0 SWAP1 SLOAD SWAP1 PUSH2 0x100 EXP SWAP1 DIV PUSH20 0xFFFFFFFFFFFFFFFFFFFFFFFFFFFFFFFFFFFFFFFF AND PUSH20 0xFFFFFFFFFFFFFFFFFFFFFFFFFFFFFFFFFFFFFFFF AND PUSH20 0xFFFFFFFFFFFFFFFFFFFFFFFFFFFFFFFFFFFFFFFF AND DUP2 MSTORE PUSH1 0x20 ADD PUSH1 0x1 DUP3 ADD SLOAD DUP2 MSTORE POP POP DUP2 MSTORE PUSH1 0x20 ADD SWAP1 PUSH1 0x1 ADD SWAP1 PUSH2 0x9AD JUMP JUMPDEST POP POP POP POP DUP2 MSTORE POP POP DUP3 PUSH1 0x1 DUP4 PUSH2 0xA55 SWAP2 SWAP1 PUSH2 0x1E78 JUMP JUMPDEST DUP2 MLOAD DUP2 LT PUSH2 0xA66 JUMPI PUSH2 0xA65 PUSH2 0x1EAC JUMP JUMPDEST JUMPDEST PUSH1 0x20 MUL PUSH1 0x20 ADD ADD DUP2 SWAP1 MSTORE POP DUP1 DUP1 PUSH2 0xA7C SWAP1 PUSH2 0x1B0C JUMP JUMPDEST SWAP2 POP POP PUSH2 0x840 JUMP JUMPDEST POP DUP1 SWAP2 POP POP SWAP1 JUMP JUMPDEST PUSH1 0x3 SLOAD DUP2 JUMP JUMPDEST PUSH1 0x3 PUSH1 0x0 DUP2 SLOAD DUP1 SWAP3 SWAP2 SWAP1 PUSH2 0xAA5 SWAP1 PUSH2 0x1B0C JUMP JUMPDEST SWAP2 SWAP1 POP SSTORE POP PUSH1 0x0 PUSH1 0x2 PUSH1 0x0 PUSH1 0x3 SLOAD DUP2 MSTORE PUSH1 0x20 ADD SWAP1 DUP2 MSTORE PUSH1 0x20 ADD PUSH1 0x0 KECCAK256 SWAP1 POP PUSH1 0x3 SLOAD DUP2 PUSH1 0x0 ADD DUP2 SWAP1 SSTORE POP CALLER DUP2 PUSH1 0x1 ADD PUSH1 0x0 PUSH2 0x100 EXP DUP2 SLOAD DUP2 PUSH20 0xFFFFFFFFFFFFFFFFFFFFFFFFFFFFFFFFFFFFFFFF MUL NOT AND SWAP1 DUP4 PUSH20 0xFFFFFFFFFFFFFFFFFFFFFFFFFFFFFFFFFFFFFFFF AND MUL OR SWAP1 SSTORE POP DUP3 DUP2 PUSH1 0x2 ADD SWAP1 DUP2 PUSH2 0xB22 SWAP2 SWAP1 PUSH2 0x207D JUMP JUMPDEST POP DUP2 DUP2 PUSH1 0x3 ADD DUP2 SWAP1 SSTORE POP PUSH1 0x0 DUP2 PUSH1 0x4 ADD DUP2 SWAP1 SSTORE POP PUSH1 0x0 DUP2 PUSH1 0x5 ADD PUSH1 0x0 PUSH2 0x100 EXP DUP2 SLOAD DUP2 PUSH1 0xFF MUL NOT AND SWAP1 DUP4 ISZERO ISZERO MUL OR SWAP1 SSTORE POP PUSH1 0x3 SLOAD PUSH32 0x3FF508BDF2223EED90B0FE0E0D9336F1D8398777E66810012410BD4AF5254646 CALLER DUP6 DUP6 PUSH1 0x40 MLOAD PUSH2 0xB89 SWAP4 SWAP3 SWAP2 SWAP1 PUSH2 0x214F JUMP JUMPDEST PUSH1 0x40 MLOAD DUP1 SWAP2 SUB SWAP1 LOG2 POP POP POP JUMP JUMPDEST PUSH1 0x0 DUP1 SLOAD SWAP1 PUSH2 0x100 EXP SWAP1 DIV PUSH20 0xFFFFFFFFFFFFFFFFFFFFFFFFFFFFFFFFFFFFFFFF AND DUP2 JUMP JUMPDEST PUSH1 0x3 SLOAD DUP3 GT ISZERO DUP1 ISZERO PUSH2 0xBCC JUMPI POP PUSH1 0x0 DUP3 GT JUMPDEST PUSH2 0xC0B JUMPI PUSH1 0x40 MLOAD PUSH32 0x8C379A000000000000000000000000000000000000000000000000000000000 DUP2 MSTORE PUSH1 0x4 ADD PUSH2 0xC02 SWAP1 PUSH2 0x1BA0 JUMP JUMPDEST PUSH1 0x40 MLOAD DUP1 SWAP2 SUB SWAP1 REVERT JUMPDEST PUSH1 0x0 PUSH1 0x2 PUSH1 0x0 DUP5 DUP2 MSTORE PUSH1 0x20 ADD SWAP1 DUP2 MSTORE PUSH1 0x20 ADD PUSH1 0x0 KECCAK256 SWAP1 POP DUP1 PUSH1 0x5 ADD PUSH1 0x0 SWAP1 SLOAD SWAP1 PUSH2 0x100 EXP SWAP1 DIV PUSH1 0xFF AND ISZERO PUSH2 0xC74 JUMPI PUSH1 0x40 MLOAD PUSH32 0x8C379A000000000000000000000000000000000000000000000000000000000 DUP2 MSTORE PUSH1 0x4 ADD PUSH2 0xC6B SWAP1 PUSH2 0x1C9E JUMP JUMPDEST PUSH1 0x40 MLOAD DUP1 SWAP2 SUB SWAP1 REVERT JUMPDEST PUSH1 0x0 DUP1 SLOAD SWAP1 PUSH2 0x100 EXP SWAP1 DIV PUSH20 0xFFFFFFFFFFFFFFFFFFFFFFFFFFFFFFFFFFFFFFFF AND PUSH20 0xFFFFFFFFFFFFFFFFFFFFFFFFFFFFFFFFFFFFFFFF AND PUSH4 0x23B872DD CALLER ADDRESS DUP6 PUSH1 0x40 MLOAD DUP5 PUSH4 0xFFFFFFFF AND PUSH1 0xE0 SHL DUP2 MSTORE PUSH1 0x4 ADD PUSH2 0xCD1 SWAP4 SWAP3 SWAP2 SWAP1 PUSH2 0x218D JUMP JUMPDEST PUSH1 0x20 PUSH1 0x40 MLOAD DUP1 DUP4 SUB DUP2 PUSH1 0x0 DUP8 GAS CALL ISZERO DUP1 ISZERO PUSH2 0xCF0 JUMPI RETURNDATASIZE PUSH1 0x0 DUP1 RETURNDATACOPY RETURNDATASIZE PUSH1 0x0 REVERT JUMPDEST POP POP POP POP PUSH1 0x40 MLOAD RETURNDATASIZE PUSH1 0x1F NOT PUSH1 0x1F DUP3 ADD AND DUP3 ADD DUP1 PUSH1 0x40 MSTORE POP DUP2 ADD SWAP1 PUSH2 0xD14 SWAP2 SWAP1 PUSH2 0x1D7F JUMP JUMPDEST PUSH2 0xD53 JUMPI PUSH1 0x40 MLOAD PUSH32 0x8C379A000000000000000000000000000000000000000000000000000000000 DUP2 MSTORE PUSH1 0x4 ADD PUSH2 0xD4A SWAP1 PUSH2 0x1DF8 JUMP JUMPDEST PUSH1 0x40 MLOAD DUP1 SWAP2 SUB SWAP1 REVERT JUMPDEST PUSH1 0x0 DUP1 JUMPDEST DUP3 PUSH1 0x6 ADD DUP1 SLOAD SWAP1 POP DUP2 LT ISZERO PUSH2 0xE3A JUMPI CALLER PUSH20 0xFFFFFFFFFFFFFFFFFFFFFFFFFFFFFFFFFFFFFFFF AND DUP4 PUSH1 0x6 ADD DUP3 DUP2 SLOAD DUP2 LT PUSH2 0xD93 JUMPI PUSH2 0xD92 PUSH2 0x1EAC JUMP JUMPDEST JUMPDEST SWAP1 PUSH1 0x0 MSTORE PUSH1 0x20 PUSH1 0x0 KECCAK256 SWAP1 PUSH1 0x2 MUL ADD PUSH1 0x0 ADD PUSH1 0x0 SWAP1 SLOAD SWAP1 PUSH2 0x100 EXP SWAP1 DIV PUSH20 0xFFFFFFFFFFFFFFFFFFFFFFFFFFFFFFFFFFFFFFFF AND PUSH20 0xFFFFFFFFFFFFFFFFFFFFFFFFFFFFFFFFFFFFFFFF AND SUB PUSH2 0xE27 JUMPI DUP4 DUP4 PUSH1 0x6 ADD DUP3 DUP2 SLOAD DUP2 LT PUSH2 0xDF7 JUMPI PUSH2 0xDF6 PUSH2 0x1EAC JUMP JUMPDEST JUMPDEST SWAP1 PUSH1 0x0 MSTORE PUSH1 0x20 PUSH1 0x0 KECCAK256 SWAP1 PUSH1 0x2 MUL ADD PUSH1 0x1 ADD PUSH1 0x0 DUP3 DUP3 SLOAD PUSH2 0xE17 SWAP2 SWAP1 PUSH2 0x1AD8 JUMP JUMPDEST SWAP3 POP POP DUP2 SWAP1 SSTORE POP PUSH1 0x1 SWAP2 POP PUSH2 0xE3A JUMP JUMPDEST DUP1 DUP1 PUSH2 0xE32 SWAP1 PUSH2 0x1B0C JUMP JUMPDEST SWAP2 POP POP PUSH2 0xD57 JUMP JUMPDEST POP DUP1 PUSH2 0xEEC JUMPI DUP2 PUSH1 0x6 ADD PUSH1 0x40 MLOAD DUP1 PUSH1 0x40 ADD PUSH1 0x40 MSTORE DUP1 CALLER PUSH20 0xFFFFFFFFFFFFFFFFFFFFFFFFFFFFFFFFFFFFFFFF AND DUP2 MSTORE PUSH1 0x20 ADD DUP6 DUP2 MSTORE POP SWAP1 DUP1 PUSH1 0x1 DUP2 SLOAD ADD DUP1 DUP3 SSTORE DUP1 SWAP2 POP POP PUSH1 0x1 SWAP1 SUB SWAP1 PUSH1 0x0 MSTORE PUSH1 0x20 PUSH1 0x0 KECCAK256 SWAP1 PUSH1 0x2 MUL ADD PUSH1 0x0 SWAP1 SWAP2 SWAP1 SWAP2 SWAP1 SWAP2 POP PUSH1 0x0 DUP3 ADD MLOAD DUP2 PUSH1 0x0 ADD PUSH1 0x0 PUSH2 0x100 EXP DUP2 SLOAD DUP2 PUSH20 0xFFFFFFFFFFFFFFFFFFFFFFFFFFFFFFFFFFFFFFFF MUL NOT AND SWAP1 DUP4 PUSH20 0xFFFFFFFFFFFFFFFFFFFFFFFFFFFFFFFFFFFFFFFF AND MUL OR SWAP1 SSTORE POP PUSH1 0x20 DUP3 ADD MLOAD DUP2 PUSH1 0x1 ADD SSTORE POP POP JUMPDEST DUP3 DUP3 PUSH1 0x4 ADD PUSH1 0x0 DUP3 DUP3 SLOAD PUSH2 0xF00 SWAP2 SWAP1 PUSH2 0x1AD8 JUMP JUMPDEST SWAP3 POP POP DUP2 SWAP1 SSTORE POP PUSH2 0xF0F PUSH2 0x1096 JUMP JUMPDEST DUP4 PUSH32 0xA1A7367B808C679C56E9C640D9CBCA96F06689942487A0ED43593201F722718A CALLER DUP6 PUSH1 0x40 MLOAD PUSH2 0xF41 SWAP3 SWAP2 SWAP1 PUSH2 0x1D2A JUMP JUMPDEST PUSH1 0x40 MLOAD DUP1 SWAP2 SUB SWAP1 LOG2 POP POP POP POP JUMP JUMPDEST PUSH1 0x0 PUSH1 0x3 SLOAD DUP4 GT ISZERO DUP1 ISZERO PUSH2 0xF63 JUMPI POP PUSH1 0x0 DUP4 GT JUMPDEST PUSH2 0xFA2 JUMPI PUSH1 0x40 MLOAD PUSH32 0x8C379A000000000000000000000000000000000000000000000000000000000 DUP2 MSTORE PUSH1 0x4 ADD PUSH2 0xF99 SWAP1 PUSH2 0x1BA0 JUMP JUMPDEST PUSH1 0x40 MLOAD DUP1 SWAP2 SUB SWAP1 REVERT JUMPDEST PUSH1 0x0 PUSH1 0x2 PUSH1 0x0 DUP6 DUP2 MSTORE PUSH1 0x20 ADD SWAP1 DUP2 MSTORE PUSH1 0x20 ADD PUSH1 0x0 KECCAK256 SWAP1 POP PUSH1 0x0 JUMPDEST DUP2 PUSH1 0x6 ADD DUP1 SLOAD SWAP1 POP DUP2 LT ISZERO PUSH2 0x1089 JUMPI DUP4 PUSH20 0xFFFFFFFFFFFFFFFFFFFFFFFFFFFFFFFFFFFFFFFF AND DUP3 PUSH1 0x6 ADD DUP3 DUP2 SLOAD DUP2 LT PUSH2 0xFF8 JUMPI PUSH2 0xFF7 PUSH2 0x1EAC JUMP JUMPDEST JUMPDEST SWAP1 PUSH1 0x0 MSTORE PUSH1 0x20 PUSH1 0x0 KECCAK256 SWAP1 PUSH1 0x2 MUL ADD PUSH1 0x0 ADD PUSH1 0x0 SWAP1 SLOAD SWAP1 PUSH2 0x100 EXP SWAP1 DIV PUSH20 0xFFFFFFFFFFFFFFFFFFFFFFFFFFFFFFFFFFFFFFFF AND PUSH20 0xFFFFFFFFFFFFFFFFFFFFFFFFFFFFFFFFFFFFFFFF AND SUB PUSH2 0x1076 JUMPI DUP2 PUSH1 0x6 ADD DUP2 DUP2 SLOAD DUP2 LT PUSH2 0x105B JUMPI PUSH2 0x105A PUSH2 0x1EAC JUMP JUMPDEST JUMPDEST SWAP1 PUSH1 0x0 MSTORE PUSH1 0x20 PUSH1 0x0 KECCAK256 SWAP1 PUSH1 0x2 MUL ADD PUSH1 0x1 ADD SLOAD SWAP3 POP POP POP PUSH2 0x1090 JUMP JUMPDEST DUP1 DUP1 PUSH2 0x1081 SWAP1 PUSH2 0x1B0C JUMP JUMPDEST SWAP2 POP POP PUSH2 0xFBC JUMP JUMPDEST POP PUSH1 0x0 SWAP2 POP POP JUMPDEST SWAP3 SWAP2 POP POP JUMP JUMPDEST PUSH1 0x0 PUSH1 0x1 SWAP1 POP JUMPDEST PUSH1 0x3 SLOAD DUP2 GT PUSH2 0x1246 JUMPI PUSH1 0x0 PUSH1 0x2 PUSH1 0x0 DUP4 DUP2 MSTORE PUSH1 0x20 ADD SWAP1 DUP2 MSTORE PUSH1 0x20 ADD PUSH1 0x0 KECCAK256 SWAP1 POP PUSH1 0x0 JUMPDEST DUP2 PUSH1 0x6 ADD DUP1 SLOAD SWAP1 POP DUP2 LT ISZERO PUSH2 0x1231 JUMPI PUSH1 0x1 PUSH1 0x0 DUP4 PUSH1 0x6 ADD DUP4 DUP2 SLOAD DUP2 LT PUSH2 0x10E9 JUMPI PUSH2 0x10E8 PUSH2 0x1EAC JUMP JUMPDEST JUMPDEST SWAP1 PUSH1 0x0 MSTORE PUSH1 0x20 PUSH1 0x0 KECCAK256 SWAP1 PUSH1 0x2 MUL ADD PUSH1 0x0 ADD PUSH1 0x0 SWAP1 SLOAD SWAP1 PUSH2 0x100 EXP SWAP1 DIV PUSH20 0xFFFFFFFFFFFFFFFFFFFFFFFFFFFFFFFFFFFFFFFF AND PUSH20 0xFFFFFFFFFFFFFFFFFFFFFFFFFFFFFFFFFFFFFFFF AND PUSH20 0xFFFFFFFFFFFFFFFFFFFFFFFFFFFFFFFFFFFFFFFF AND DUP2 MSTORE PUSH1 0x20 ADD SWAP1 DUP2 MSTORE PUSH1 0x20 ADD PUSH1 0x0 KECCAK256 PUSH1 0x0 SWAP1 SLOAD SWAP1 PUSH2 0x100 EXP SWAP1 DIV PUSH1 0xFF AND PUSH2 0x121E JUMPI PUSH1 0x1 DUP1 PUSH1 0x0 DUP5 PUSH1 0x6 ADD DUP5 DUP2 SLOAD DUP2 LT PUSH2 0x1182 JUMPI PUSH2 0x1181 PUSH2 0x1EAC JUMP JUMPDEST JUMPDEST SWAP1 PUSH1 0x0 MSTORE PUSH1 0x20 PUSH1 0x0 KECCAK256 SWAP1 PUSH1 0x2 MUL ADD PUSH1 0x0 ADD PUSH1 0x0 SWAP1 SLOAD SWAP1 PUSH2 0x100 EXP SWAP1 DIV PUSH20 0xFFFFFFFFFFFFFFFFFFFFFFFFFFFFFFFFFFFFFFFF AND PUSH20 0xFFFFFFFFFFFFFFFFFFFFFFFFFFFFFFFFFFFFFFFF AND PUSH20 0xFFFFFFFFFFFFFFFFFFFFFFFFFFFFFFFFFFFFFFFF AND DUP2 MSTORE PUSH1 0x20 ADD SWAP1 DUP2 MSTORE PUSH1 0x20 ADD PUSH1 0x0 KECCAK256 PUSH1 0x0 PUSH2 0x100 EXP DUP2 SLOAD DUP2 PUSH1 0xFF MUL NOT AND SWAP1 DUP4 ISZERO ISZERO MUL OR SWAP1 SSTORE POP PUSH1 0x4 PUSH1 0x0 DUP2 SLOAD DUP1 SWAP3 SWAP2 SWAP1 PUSH2 0x1218 SWAP1 PUSH2 0x1B0C JUMP JUMPDEST SWAP2 SWAP1 POP SSTORE POP JUMPDEST DUP1 DUP1 PUSH2 0x1229 SWAP1 PUSH2 0x1B0C JUMP JUMPDEST SWAP2 POP POP PUSH2 0x10C0 JUMP JUMPDEST POP POP DUP1 DUP1 PUSH2 0x123E SWAP1 PUSH2 0x1B0C JUMP JUMPDEST SWAP2 POP POP PUSH2 0x109D JUMP JUMPDEST POP JUMP JUMPDEST PUSH1 0x40 MLOAD DUP1 PUSH1 0xE0 ADD PUSH1 0x40 MSTORE DUP1 PUSH1 0x0 DUP2 MSTORE PUSH1 0x20 ADD PUSH1 0x0 PUSH20 0xFFFFFFFFFFFFFFFFFFFFFFFFFFFFFFFFFFFFFFFF AND DUP2 MSTORE PUSH1 0x20 ADD PUSH1 0x60 DUP2 MSTORE PUSH1 0x20 ADD PUSH1 0x0 DUP2 MSTORE PUSH1 0x20 ADD PUSH1 0x0 DUP2 MSTORE PUSH1 0x20 ADD PUSH1 0x0 ISZERO ISZERO DUP2 MSTORE PUSH1 0x20 ADD PUSH1 0x60 DUP2 MSTORE POP SWAP1 JUMP JUMPDEST PUSH1 0x0 DUP2 SWAP1 POP SWAP2 SWAP1 POP JUMP JUMPDEST PUSH2 0x12B1 DUP2 PUSH2 0x129E JUMP JUMPDEST DUP3 MSTORE POP POP JUMP JUMPDEST PUSH1 0x0 PUSH1 0x20 DUP3 ADD SWAP1 POP PUSH2 0x12CC PUSH1 0x0 DUP4 ADD DUP5 PUSH2 0x12A8 JUMP JUMPDEST SWAP3 SWAP2 POP POP JUMP JUMPDEST PUSH1 0x0 PUSH1 0x40 MLOAD SWAP1 POP SWAP1 JUMP JUMPDEST PUSH1 0x0 DUP1 REVERT JUMPDEST PUSH1 0x0 DUP1 REVERT JUMPDEST PUSH2 0x12EF DUP2 PUSH2 0x129E JUMP JUMPDEST DUP2 EQ PUSH2 0x12FA JUMPI PUSH1 0x0 DUP1 REVERT JUMPDEST POP JUMP JUMPDEST PUSH1 0x0 DUP2 CALLDATALOAD SWAP1 POP PUSH2 0x130C DUP2 PUSH2 0x12E6 JUMP JUMPDEST SWAP3 SWAP2 POP POP JUMP JUMPDEST PUSH1 0x0 PUSH1 0x20 DUP3 DUP5 SUB SLT ISZERO PUSH2 0x1328 JUMPI PUSH2 0x1327 PUSH2 0x12DC JUMP JUMPDEST JUMPDEST PUSH1 0x0 PUSH2 0x1336 DUP5 DUP3 DUP6 ADD PUSH2 0x12FD JUMP JUMPDEST SWAP2 POP POP SWAP3 SWAP2 POP POP JUMP JUMPDEST PUSH1 0x0 PUSH20 0xFFFFFFFFFFFFFFFFFFFFFFFFFFFFFFFFFFFFFFFF DUP3 AND SWAP1 POP SWAP2 SWAP1 POP JUMP JUMPDEST PUSH1 0x0 PUSH2 0x136A DUP3 PUSH2 0x133F JUMP JUMPDEST SWAP1 POP SWAP2 SWAP1 POP JUMP JUMPDEST PUSH2 0x137A DUP2 PUSH2 0x135F JUMP JUMPDEST DUP3 MSTORE POP POP JUMP JUMPDEST PUSH1 0x0 DUP2 MLOAD SWAP1 POP SWAP2 SWAP1 POP JUMP JUMPDEST PUSH1 0x0 DUP3 DUP3 MSTORE PUSH1 0x20 DUP3 ADD SWAP1 POP SWAP3 SWAP2 POP POP JUMP JUMPDEST PUSH1 0x0 JUMPDEST DUP4 DUP2 LT ISZERO PUSH2 0x13BA JUMPI DUP1 DUP3 ADD MLOAD DUP2 DUP5 ADD MSTORE PUSH1 0x20 DUP2 ADD SWAP1 POP PUSH2 0x139F JUMP JUMPDEST PUSH1 0x0 DUP5 DUP5 ADD MSTORE POP POP POP POP JUMP JUMPDEST PUSH1 0x0 PUSH1 0x1F NOT PUSH1 0x1F DUP4 ADD AND SWAP1 POP SWAP2 SWAP1 POP JUMP JUMPDEST PUSH1 0x0 PUSH2 0x13E2 DUP3 PUSH2 0x1380 JUMP JUMPDEST PUSH2 0x13EC DUP2 DUP6 PUSH2 0x138B JUMP JUMPDEST SWAP4 POP PUSH2 0x13FC DUP2 DUP6 PUSH1 0x20 DUP7 ADD PUSH2 0x139C JUMP JUMPDEST PUSH2 0x1405 DUP2 PUSH2 0x13C6 JUMP JUMPDEST DUP5 ADD SWAP2 POP POP SWAP3 SWAP2 POP POP JUMP JUMPDEST PUSH1 0x0 DUP2 ISZERO ISZERO SWAP1 POP SWAP2 SWAP1 POP JUMP JUMPDEST PUSH2 0x1425 DUP2 PUSH2 0x1410 JUMP JUMPDEST DUP3 MSTORE POP POP JUMP JUMPDEST PUSH1 0x0 PUSH1 0xA0 DUP3 ADD SWAP1 POP PUSH2 0x1440 PUSH1 0x0 DUP4 ADD DUP9 PUSH2 0x1371 JUMP JUMPDEST DUP2 DUP2 SUB PUSH1 0x20 DUP4 ADD MSTORE PUSH2 0x1452 DUP2 DUP8 PUSH2 0x13D7 JUMP JUMPDEST SWAP1 POP PUSH2 0x1461 PUSH1 0x40 DUP4 ADD DUP7 PUSH2 0x12A8 JUMP JUMPDEST PUSH2 0x146E PUSH1 0x60 DUP4 ADD DUP6 PUSH2 0x12A8 JUMP JUMPDEST PUSH2 0x147B PUSH1 0x80 DUP4 ADD DUP5 PUSH2 0x141C JUMP JUMPDEST SWAP7 SWAP6 POP POP POP POP POP POP JUMP JUMPDEST PUSH1 0x0 DUP2 MLOAD SWAP1 POP SWAP2 SWAP1 POP JUMP JUMPDEST PUSH1 0x0 DUP3 DUP3 MSTORE PUSH1 0x20 DUP3 ADD SWAP1 POP SWAP3 SWAP2 POP POP JUMP JUMPDEST PUSH1 0x0 DUP2 SWAP1 POP PUSH1 0x20 DUP3 ADD SWAP1 POP SWAP2 SWAP1 POP JUMP JUMPDEST PUSH2 0x14BA DUP2 PUSH2 0x135F JUMP JUMPDEST DUP3 MSTORE POP POP JUMP JUMPDEST PUSH2 0x14C9 DUP2 PUSH2 0x129E JUMP JUMPDEST DUP3 MSTORE POP POP JUMP JUMPDEST PUSH1 0x40 DUP3 ADD PUSH1 0x0 DUP3 ADD MLOAD PUSH2 0x14E5 PUSH1 0x0 DUP6 ADD DUP3 PUSH2 0x14B1 JUMP JUMPDEST POP PUSH1 0x20 DUP3 ADD MLOAD PUSH2 0x14F8 PUSH1 0x20 DUP6 ADD DUP3 PUSH2 0x14C0 JUMP JUMPDEST POP POP POP POP JUMP JUMPDEST PUSH1 0x0 PUSH2 0x150A DUP4 DUP4 PUSH2 0x14CF JUMP JUMPDEST PUSH1 0x40 DUP4 ADD SWAP1 POP SWAP3 SWAP2 POP POP JUMP JUMPDEST PUSH1 0x0 PUSH1 0x20 DUP3 ADD SWAP1 POP SWAP2 SWAP1 POP JUMP JUMPDEST PUSH1 0x0 PUSH2 0x152E DUP3 PUSH2 0x1485 JUMP JUMPDEST PUSH2 0x1538 DUP2 DUP6 PUSH2 0x1490 JUMP JUMPDEST SWAP4 POP PUSH2 0x1543 DUP4 PUSH2 0x14A1 JUMP JUMPDEST DUP1 PUSH1 0x0 JUMPDEST DUP4 DUP2 LT ISZERO PUSH2 0x1574 JUMPI DUP2 MLOAD PUSH2 0x155B DUP9 DUP3 PUSH2 0x14FE JUMP JUMPDEST SWAP8 POP PUSH2 0x1566 DUP4 PUSH2 0x1516 JUMP JUMPDEST SWAP3 POP POP PUSH1 0x1 DUP2 ADD SWAP1 POP PUSH2 0x1547 JUMP JUMPDEST POP DUP6 SWAP4 POP POP POP POP SWAP3 SWAP2 POP POP JUMP JUMPDEST PUSH1 0x0 PUSH1 0x20 DUP3 ADD SWAP1 POP DUP2 DUP2 SUB PUSH1 0x0 DUP4 ADD MSTORE PUSH2 0x159B DUP2 DUP5 PUSH2 0x1523 JUMP JUMPDEST SWAP1 POP SWAP3 SWAP2 POP POP JUMP JUMPDEST PUSH1 0x0 DUP2 MLOAD SWAP1 POP SWAP2 SWAP1 POP JUMP JUMPDEST PUSH1 0x0 DUP3 DUP3 MSTORE PUSH1 0x20 DUP3 ADD SWAP1 POP SWAP3 SWAP2 POP POP JUMP JUMPDEST PUSH1 0x0 DUP2 SWAP1 POP PUSH1 0x20 DUP3 ADD SWAP1 POP SWAP2 SWAP1 POP JUMP JUMPDEST PUSH1 0x0 DUP3 DUP3 MSTORE PUSH1 0x20 DUP3 ADD SWAP1 POP SWAP3 SWAP2 POP POP JUMP JUMPDEST PUSH1 0x0 PUSH2 0x15EB DUP3 PUSH2 0x1380 JUMP JUMPDEST PUSH2 0x15F5 DUP2 DUP6 PUSH2 0x15CF JUMP JUMPDEST SWAP4 POP PUSH2 0x1605 DUP2 DUP6 PUSH1 0x20 DUP7 ADD PUSH2 0x139C JUMP JUMPDEST PUSH2 0x160E DUP2 PUSH2 0x13C6 JUMP JUMPDEST DUP5 ADD SWAP2 POP POP SWAP3 SWAP2 POP POP JUMP JUMPDEST PUSH2 0x1622 DUP2 PUSH2 0x1410 JUMP JUMPDEST DUP3 MSTORE POP POP JUMP JUMPDEST PUSH1 0x0 DUP3 DUP3 MSTORE PUSH1 0x20 DUP3 ADD SWAP1 POP SWAP3 SWAP2 POP POP JUMP JUMPDEST PUSH1 0x0 PUSH2 0x1644 DUP3 PUSH2 0x1485 JUMP JUMPDEST PUSH2 0x164E DUP2 DUP6 PUSH2 0x1628 JUMP JUMPDEST SWAP4 POP PUSH2 0x1659 DUP4 PUSH2 0x14A1 JUMP JUMPDEST DUP1 PUSH1 0x0 JUMPDEST DUP4 DUP2 LT ISZERO PUSH2 0x168A JUMPI DUP2 MLOAD PUSH2 0x1671 DUP9 DUP3 PUSH2 0x14FE JUMP JUMPDEST SWAP8 POP PUSH2 0x167C DUP4 PUSH2 0x1516 JUMP JUMPDEST SWAP3 POP POP PUSH1 0x1 DUP2 ADD SWAP1 POP PUSH2 0x165D JUMP JUMPDEST POP DUP6 SWAP4 POP POP POP POP SWAP3 SWAP2 POP POP JUMP JUMPDEST PUSH1 0x0 PUSH1 0xE0 DUP4 ADD PUSH1 0x0 DUP4 ADD MLOAD PUSH2 0x16AF PUSH1 0x0 DUP7 ADD DUP3 PUSH2 0x14C0 JUMP JUMPDEST POP PUSH1 0x20 DUP4 ADD MLOAD PUSH2 0x16C2 PUSH1 0x20 DUP7 ADD DUP3 PUSH2 0x14B1 JUMP JUMPDEST POP PUSH1 0x40 DUP4 ADD MLOAD DUP5 DUP3 SUB PUSH1 0x40 DUP7 ADD MSTORE PUSH2 0x16DA DUP3 DUP3 PUSH2 0x15E0 JUMP JUMPDEST SWAP2 POP POP PUSH1 0x60 DUP4 ADD MLOAD PUSH2 0x16EF PUSH1 0x60 DUP7 ADD DUP3 PUSH2 0x14C0 JUMP JUMPDEST POP PUSH1 0x80 DUP4 ADD MLOAD PUSH2 0x1702 PUSH1 0x80 DUP7 ADD DUP3 PUSH2 0x14C0 JUMP JUMPDEST POP PUSH1 0xA0 DUP4 ADD MLOAD PUSH2 0x1715 PUSH1 0xA0 DUP7 ADD DUP3 PUSH2 0x1619 JUMP JUMPDEST POP PUSH1 0xC0 DUP4 ADD MLOAD DUP5 DUP3 SUB PUSH1 0xC0 DUP7 ADD MSTORE PUSH2 0x172D DUP3 DUP3 PUSH2 0x1639 JUMP JUMPDEST SWAP2 POP POP DUP1 SWAP2 POP POP SWAP3 SWAP2 POP POP JUMP JUMPDEST PUSH1 0x0 PUSH2 0x1746 DUP4 DUP4 PUSH2 0x1697 JUMP JUMPDEST SWAP1 POP SWAP3 SWAP2 POP POP JUMP JUMPDEST PUSH1 0x0 PUSH1 0x20 DUP3 ADD SWAP1 POP SWAP2 SWAP1 POP JUMP JUMPDEST PUSH1 0x0 PUSH2 0x1766 DUP3 PUSH2 0x15A3 JUMP JUMPDEST PUSH2 0x1770 DUP2 DUP6 PUSH2 0x15AE JUMP JUMPDEST SWAP4 POP DUP4 PUSH1 0x20 DUP3 MUL DUP6 ADD PUSH2 0x1782 DUP6 PUSH2 0x15BF JUMP JUMPDEST DUP1 PUSH1 0x0 JUMPDEST DUP6 DUP2 LT ISZERO PUSH2 0x17BE JUMPI DUP5 DUP5 SUB DUP10 MSTORE DUP2 MLOAD PUSH2 0x179F DUP6 DUP3 PUSH2 0x173A JUMP JUMPDEST SWAP5 POP PUSH2 0x17AA DUP4 PUSH2 0x174E JUMP JUMPDEST SWAP3 POP PUSH1 0x20 DUP11 ADD SWAP10 POP POP PUSH1 0x1 DUP2 ADD SWAP1 POP PUSH2 0x1786 JUMP JUMPDEST POP DUP3 SWAP8 POP DUP8 SWAP6 POP POP POP POP POP POP SWAP3 SWAP2 POP POP JUMP JUMPDEST PUSH1 0x0 PUSH1 0x20 DUP3 ADD SWAP1 POP DUP2 DUP2 SUB PUSH1 0x0 DUP4 ADD MSTORE PUSH2 0x17EA DUP2 DUP5 PUSH2 0x175B JUMP JUMPDEST SWAP1 POP SWAP3 SWAP2 POP POP JUMP JUMPDEST PUSH1 0x0 DUP1 REVERT JUMPDEST PUSH1 0x0 DUP1 REVERT JUMPDEST PUSH32 0x4E487B7100000000000000000000000000000000000000000000000000000000 PUSH1 0x0 MSTORE PUSH1 0x41 PUSH1 0x4 MSTORE PUSH1 0x24 PUSH1 0x0 REVERT JUMPDEST PUSH2 0x1834 DUP3 PUSH2 0x13C6 JUMP JUMPDEST DUP2 ADD DUP2 DUP2 LT PUSH8 0xFFFFFFFFFFFFFFFF DUP3 GT OR ISZERO PUSH2 0x1853 JUMPI PUSH2 0x1852 PUSH2 0x17FC JUMP JUMPDEST JUMPDEST DUP1 PUSH1 0x40 MSTORE POP POP POP JUMP JUMPDEST PUSH1 0x0 PUSH2 0x1866 PUSH2 0x12D2 JUMP JUMPDEST SWAP1 POP PUSH2 0x1872 DUP3 DUP3 PUSH2 0x182B JUMP JUMPDEST SWAP2 SWAP1 POP JUMP JUMPDEST PUSH1 0x0 PUSH8 0xFFFFFFFFFFFFFFFF DUP3 GT ISZERO PUSH2 0x1892 JUMPI PUSH2 0x1891 PUSH2 0x17FC JUMP JUMPDEST JUMPDEST PUSH2 0x189B DUP3 PUSH2 0x13C6 JUMP JUMPDEST SWAP1 POP PUSH1 0x20 DUP2 ADD SWAP1 POP SWAP2 SWAP1 POP JUMP JUMPDEST DUP3 DUP2 DUP4 CALLDATACOPY PUSH1 0x0 DUP4 DUP4 ADD MSTORE POP POP POP JUMP JUMPDEST PUSH1 0x0 PUSH2 0x18CA PUSH2 0x18C5 DUP5 PUSH2 0x1877 JUMP JUMPDEST PUSH2 0x185C JUMP JUMPDEST SWAP1 POP DUP3 DUP2 MSTORE PUSH1 0x20 DUP2 ADD DUP5 DUP5 DUP5 ADD GT ISZERO PUSH2 0x18E6 JUMPI PUSH2 0x18E5 PUSH2 0x17F7 JUMP JUMPDEST JUMPDEST PUSH2 0x18F1 DUP5 DUP3 DUP6 PUSH2 0x18A8 JUMP JUMPDEST POP SWAP4 SWAP3 POP POP POP JUMP JUMPDEST PUSH1 0x0 DUP3 PUSH1 0x1F DUP4 ADD SLT PUSH2 0x190E JUMPI PUSH2 0x190D PUSH2 0x17F2 JUMP JUMPDEST JUMPDEST DUP2 CALLDATALOAD PUSH2 0x191E DUP5 DUP3 PUSH1 0x20 DUP7 ADD PUSH2 0x18B7 JUMP JUMPDEST SWAP2 POP POP SWAP3 SWAP2 POP POP JUMP JUMPDEST PUSH1 0x0 DUP1 PUSH1 0x40 DUP4 DUP6 SUB SLT ISZERO PUSH2 0x193E JUMPI PUSH2 0x193D PUSH2 0x12DC JUMP JUMPDEST JUMPDEST PUSH1 0x0 DUP4 ADD CALLDATALOAD PUSH8 0xFFFFFFFFFFFFFFFF DUP2 GT ISZERO PUSH2 0x195C JUMPI PUSH2 0x195B PUSH2 0x12E1 JUMP JUMPDEST JUMPDEST PUSH2 0x1968 DUP6 DUP3 DUP7 ADD PUSH2 0x18F9 JUMP JUMPDEST SWAP3 POP POP PUSH1 0x20 PUSH2 0x1979 DUP6 DUP3 DUP7 ADD PUSH2 0x12FD JUMP JUMPDEST SWAP2 POP POP SWAP3 POP SWAP3 SWAP1 POP JUMP JUMPDEST PUSH1 0x0 DUP2 SWAP1 POP SWAP2 SWAP1 POP JUMP JUMPDEST PUSH1 0x0 PUSH2 0x19A8 PUSH2 0x19A3 PUSH2 0x199E DUP5 PUSH2 0x133F JUMP JUMPDEST PUSH2 0x1983 JUMP JUMPDEST PUSH2 0x133F JUMP JUMPDEST SWAP1 POP SWAP2 SWAP1 POP JUMP JUMPDEST PUSH1 0x0 PUSH2 0x19BA DUP3 PUSH2 0x198D JUMP JUMPDEST SWAP1 POP SWAP2 SWAP1 POP JUMP JUMPDEST PUSH1 0x0 PUSH2 0x19CC DUP3 PUSH2 0x19AF JUMP JUMPDEST SWAP1 POP SWAP2 SWAP1 POP JUMP JUMPDEST PUSH2 0x19DC DUP2 PUSH2 0x19C1 JUMP JUMPDEST DUP3 MSTORE POP POP JUMP JUMPDEST PUSH1 0x0 PUSH1 0x20 DUP3 ADD SWAP1 POP PUSH2 0x19F7 PUSH1 0x0 DUP4 ADD DUP5 PUSH2 0x19D3 JUMP JUMPDEST SWAP3 SWAP2 POP POP JUMP JUMPDEST PUSH1 0x0 DUP1 PUSH1 0x40 DUP4 DUP6 SUB SLT ISZERO PUSH2 0x1A14 JUMPI PUSH2 0x1A13 PUSH2 0x12DC JUMP JUMPDEST JUMPDEST PUSH1 0x0 PUSH2 0x1A22 DUP6 DUP3 DUP7 ADD PUSH2 0x12FD JUMP JUMPDEST SWAP3 POP POP PUSH1 0x20 PUSH2 0x1A33 DUP6 DUP3 DUP7 ADD PUSH2 0x12FD JUMP JUMPDEST SWAP2 POP POP SWAP3 POP SWAP3 SWAP1 POP JUMP JUMPDEST PUSH2 0x1A46 DUP2 PUSH2 0x135F JUMP JUMPDEST DUP2 EQ PUSH2 0x1A51 JUMPI PUSH1 0x0 DUP1 REVERT JUMPDEST POP JUMP JUMPDEST PUSH1 0x0 DUP2 CALLDATALOAD SWAP1 POP PUSH2 0x1A63 DUP2 PUSH2 0x1A3D JUMP JUMPDEST SWAP3 SWAP2 POP POP JUMP JUMPDEST PUSH1 0x0 DUP1 PUSH1 0x40 DUP4 DUP6 SUB SLT ISZERO PUSH2 0x1A80 JUMPI PUSH2 0x1A7F PUSH2 0x12DC JUMP JUMPDEST JUMPDEST PUSH1 0x0 PUSH2 0x1A8E DUP6 DUP3 DUP7 ADD PUSH2 0x12FD JUMP JUMPDEST SWAP3 POP POP PUSH1 0x20 PUSH2 0x1A9F DUP6 DUP3 DUP7 ADD PUSH2 0x1A54 JUMP JUMPDEST SWAP2 POP POP SWAP3 POP SWAP3 SWAP1 POP JUMP JUMPDEST PUSH32 0x4E487B7100000000000000000000000000000000000000000000000000000000 PUSH1 0x0 MSTORE PUSH1 0x11 PUSH1 0x4 MSTORE PUSH1 0x24 PUSH1 0x0 REVERT JUMPDEST PUSH1 0x0 PUSH2 0x1AE3 DUP3 PUSH2 0x129E JUMP JUMPDEST SWAP2 POP PUSH2 0x1AEE DUP4 PUSH2 0x129E JUMP JUMPDEST SWAP3 POP DUP3 DUP3 ADD SWAP1 POP DUP1 DUP3 GT ISZERO PUSH2 0x1B06 JUMPI PUSH2 0x1B05 PUSH2 0x1AA9 JUMP JUMPDEST JUMPDEST SWAP3 SWAP2 POP POP JUMP JUMPDEST PUSH1 0x0 PUSH2 0x1B17 DUP3 PUSH2 0x129E JUMP JUMPDEST SWAP2 POP PUSH32 0xFFFFFFFFFFFFFFFFFFFFFFFFFFFFFFFFFFFFFFFFFFFFFFFFFFFFFFFFFFFFFFFF DUP3 SUB PUSH2 0x1B49 JUMPI PUSH2 0x1B48 PUSH2 0x1AA9 JUMP JUMPDEST JUMPDEST PUSH1 0x1 DUP3 ADD SWAP1 POP SWAP2 SWAP1 POP JUMP JUMPDEST PUSH32 0x496E76616C696420696E636964656E7420494400000000000000000000000000 PUSH1 0x0 DUP3 ADD MSTORE POP JUMP JUMPDEST PUSH1 0x0 PUSH2 0x1B8A PUSH1 0x13 DUP4 PUSH2 0x138B JUMP JUMPDEST SWAP2 POP PUSH2 0x1B95 DUP3 PUSH2 0x1B54 JUMP JUMPDEST PUSH1 0x20 DUP3 ADD SWAP1 POP SWAP2 SWAP1 POP JUMP JUMPDEST PUSH1 0x0 PUSH1 0x20 DUP3 ADD SWAP1 POP DUP2 DUP2 SUB PUSH1 0x0 DUP4 ADD MSTORE PUSH2 0x1BB9 DUP2 PUSH2 0x1B7D JUMP JUMPDEST SWAP1 POP SWAP2 SWAP1 POP JUMP JUMPDEST PUSH32 0x4F6E6C792074686520696E636964656E74207265706F727465722063616E2063 PUSH1 0x0 DUP3 ADD MSTORE PUSH32 0x6C61696D2066756E647300000000000000000000000000000000000000000000 PUSH1 0x20 DUP3 ADD MSTORE POP JUMP JUMPDEST PUSH1 0x0 PUSH2 0x1C1C PUSH1 0x2A DUP4 PUSH2 0x138B JUMP JUMPDEST SWAP2 POP PUSH2 0x1C27 DUP3 PUSH2 0x1BC0 JUMP JUMPDEST PUSH1 0x40 DUP3 ADD SWAP1 POP SWAP2 SWAP1 POP JUMP JUMPDEST PUSH1 0x0 PUSH1 0x20 DUP3 ADD SWAP1 POP DUP2 DUP2 SUB PUSH1 0x0 DUP4 ADD MSTORE PUSH2 0x1C4B DUP2 PUSH2 0x1C0F JUMP JUMPDEST SWAP1 POP SWAP2 SWAP1 POP JUMP JUMPDEST PUSH32 0x46756E6473206861766520616C7265616479206265656E20636C61696D656400 PUSH1 0x0 DUP3 ADD MSTORE POP JUMP JUMPDEST PUSH1 0x0 PUSH2 0x1C88 PUSH1 0x1F DUP4 PUSH2 0x138B JUMP JUMPDEST SWAP2 POP PUSH2 0x1C93 DUP3 PUSH2 0x1C52 JUMP JUMPDEST PUSH1 0x20 DUP3 ADD SWAP1 POP SWAP2 SWAP1 POP JUMP JUMPDEST PUSH1 0x0 PUSH1 0x20 DUP3 ADD SWAP1 POP DUP2 DUP2 SUB PUSH1 0x0 DUP4 ADD MSTORE PUSH2 0x1CB7 DUP2 PUSH2 0x1C7B JUMP JUMPDEST SWAP1 POP SWAP2 SWAP1 POP JUMP JUMPDEST PUSH32 0x4E6F2066756E647320617661696C61626C6520746F20636C61696D0000000000 PUSH1 0x0 DUP3 ADD MSTORE POP JUMP JUMPDEST PUSH1 0x0 PUSH2 0x1CF4 PUSH1 0x1B DUP4 PUSH2 0x138B JUMP JUMPDEST SWAP2 POP PUSH2 0x1CFF DUP3 PUSH2 0x1CBE JUMP JUMPDEST PUSH1 0x20 DUP3 ADD SWAP1 POP SWAP2 SWAP1 POP JUMP JUMPDEST PUSH1 0x0 PUSH1 0x20 DUP3 ADD SWAP1 POP DUP2 DUP2 SUB PUSH1 0x0 DUP4 ADD MSTORE PUSH2 0x1D23 DUP2 PUSH2 0x1CE7 JUMP JUMPDEST SWAP1 POP SWAP2 SWAP1 POP JUMP JUMPDEST PUSH1 0x0 PUSH1 0x40 DUP3 ADD SWAP1 POP PUSH2 0x1D3F PUSH1 0x0 DUP4 ADD DUP6 PUSH2 0x1371 JUMP JUMPDEST PUSH2 0x1D4C PUSH1 0x20 DUP4 ADD DUP5 PUSH2 0x12A8 JUMP JUMPDEST SWAP4 SWAP3 POP POP POP JUMP JUMPDEST PUSH2 0x1D5C DUP2 PUSH2 0x1410 JUMP JUMPDEST DUP2 EQ PUSH2 0x1D67 JUMPI PUSH1 0x0 DUP1 REVERT JUMPDEST POP JUMP JUMPDEST PUSH1 0x0 DUP2 MLOAD SWAP1 POP PUSH2 0x1D79 DUP2 PUSH2 0x1D53 JUMP JUMPDEST SWAP3 SWAP2 POP POP JUMP JUMPDEST PUSH1 0x0 PUSH1 0x20 DUP3 DUP5 SUB SLT ISZERO PUSH2 0x1D95 JUMPI PUSH2 0x1D94 PUSH2 0x12DC JUMP JUMPDEST JUMPDEST PUSH1 0x0 PUSH2 0x1DA3 DUP5 DUP3 DUP6 ADD PUSH2 0x1D6A JUMP JUMPDEST SWAP2 POP POP SWAP3 SWAP2 POP POP JUMP JUMPDEST PUSH32 0x5472616E73666572206661696C65640000000000000000000000000000000000 PUSH1 0x0 DUP3 ADD MSTORE POP JUMP JUMPDEST PUSH1 0x0 PUSH2 0x1DE2 PUSH1 0xF DUP4 PUSH2 0x138B JUMP JUMPDEST SWAP2 POP PUSH2 0x1DED DUP3 PUSH2 0x1DAC JUMP JUMPDEST PUSH1 0x20 DUP3 ADD SWAP1 POP SWAP2 SWAP1 POP JUMP JUMPDEST PUSH1 0x0 PUSH1 0x20 DUP3 ADD SWAP1 POP DUP2 DUP2 SUB PUSH1 0x0 DUP4 ADD MSTORE PUSH2 0x1E11 DUP2 PUSH2 0x1DD5 JUMP JUMPDEST SWAP1 POP SWAP2 SWAP1 POP JUMP JUMPDEST PUSH32 0x4E487B7100000000000000000000000000000000000000000000000000000000 PUSH1 0x0 MSTORE PUSH1 0x22 PUSH1 0x4 MSTORE PUSH1 0x24 PUSH1 0x0 REVERT JUMPDEST PUSH1 0x0 PUSH1 0x2 DUP3 DIV SWAP1 POP PUSH1 0x1 DUP3 AND DUP1 PUSH2 0x1E5F JUMPI PUSH1 0x7F DUP3 AND SWAP2 POP JUMPDEST PUSH1 0x20 DUP3 LT DUP2 SUB PUSH2 0x1E72 JUMPI PUSH2 0x1E71 PUSH2 0x1E18 JUMP JUMPDEST JUMPDEST POP SWAP2 SWAP1 POP JUMP JUMPDEST PUSH1 0x0 PUSH2 0x1E83 DUP3 PUSH2 0x129E JUMP JUMPDEST SWAP2 POP PUSH2 0x1E8E DUP4 PUSH2 0x129E JUMP JUMPDEST SWAP3 POP DUP3 DUP3 SUB SWAP1 POP DUP2 DUP2 GT ISZERO PUSH2 0x1EA6 JUMPI PUSH2 0x1EA5 PUSH2 0x1AA9 JUMP JUMPDEST JUMPDEST SWAP3 SWAP2 POP POP JUMP JUMPDEST PUSH32 0x4E487B7100000000000000000000000000000000000000000000000000000000 PUSH1 0x0 MSTORE PUSH1 0x32 PUSH1 0x4 MSTORE PUSH1 0x24 PUSH1 0x0 REVERT JUMPDEST PUSH1 0x0 DUP2 SWAP1 POP DUP2 PUSH1 0x0 MSTORE PUSH1 0x20 PUSH1 0x0 KECCAK256 SWAP1 POP SWAP2 SWAP1 POP JUMP JUMPDEST PUSH1 0x0 PUSH1 0x20 PUSH1 0x1F DUP4 ADD DIV SWAP1 POP SWAP2 SWAP1 POP JUMP JUMPDEST PUSH1 0x0 DUP3 DUP3 SHL SWAP1 POP SWAP3 SWAP2 POP POP JUMP JUMPDEST PUSH1 0x0 PUSH1 0x8 DUP4 MUL PUSH2 0x1F3D PUSH32 0xFFFFFFFFFFFFFFFFFFFFFFFFFFFFFFFFFFFFFFFFFFFFFFFFFFFFFFFFFFFFFFFF DUP3 PUSH2 0x1F00 JUMP JUMPDEST PUSH2 0x1F47 DUP7 DUP4 PUSH2 0x1F00 JUMP JUMPDEST SWAP6 POP DUP1 NOT DUP5 AND SWAP4 POP DUP1 DUP7 AND DUP5 OR SWAP3 POP POP POP SWAP4 SWAP3 POP POP POP JUMP JUMPDEST PUSH1 0x0 PUSH2 0x1F7A PUSH2 0x1F75 PUSH2 0x1F70 DUP5 PUSH2 0x129E JUMP JUMPDEST PUSH2 0x1983 JUMP JUMPDEST PUSH2 0x129E JUMP JUMPDEST SWAP1 POP SWAP2 SWAP1 POP JUMP JUMPDEST PUSH1 0x0 DUP2 SWAP1 POP SWAP2 SWAP1 POP JUMP JUMPDEST PUSH2 0x1F94 DUP4 PUSH2 0x1F5F JUMP JUMPDEST PUSH2 0x1FA8 PUSH2 0x1FA0 DUP3 PUSH2 0x1F81 JUMP JUMPDEST DUP5 DUP5 SLOAD PUSH2 0x1F0D JUMP JUMPDEST DUP3 SSTORE POP POP POP POP JUMP JUMPDEST PUSH1 0x0 SWAP1 JUMP JUMPDEST PUSH2 0x1FBD PUSH2 0x1FB0 JUMP JUMPDEST PUSH2 0x1FC8 DUP2 DUP5 DUP5 PUSH2 0x1F8B JUMP JUMPDEST POP POP POP JUMP JUMPDEST JUMPDEST DUP2 DUP2 LT ISZERO PUSH2 0x1FEC JUMPI PUSH2 0x1FE1 PUSH1 0x0 DUP3 PUSH2 0x1FB5 JUMP JUMPDEST PUSH1 0x1 DUP2 ADD SWAP1 POP PUSH2 0x1FCE JUMP JUMPDEST POP POP JUMP JUMPDEST PUSH1 0x1F DUP3 GT ISZERO PUSH2 0x2031 JUMPI PUSH2 0x2002 DUP2 PUSH2 0x1EDB JUMP JUMPDEST PUSH2 0x200B DUP5 PUSH2 0x1EF0 JUMP JUMPDEST DUP2 ADD PUSH1 0x20 DUP6 LT ISZERO PUSH2 0x201A JUMPI DUP2 SWAP1 POP JUMPDEST PUSH2 0x202E PUSH2 0x2026 DUP6 PUSH2 0x1EF0 JUMP JUMPDEST DUP4 ADD DUP3 PUSH2 0x1FCD JUMP JUMPDEST POP POP JUMPDEST POP POP POP JUMP JUMPDEST PUSH1 0x0 DUP3 DUP3 SHR SWAP1 POP SWAP3 SWAP2 POP POP JUMP JUMPDEST PUSH1 0x0 PUSH2 0x2054 PUSH1 0x0 NOT DUP5 PUSH1 0x8 MUL PUSH2 0x2036 JUMP JUMPDEST NOT DUP1 DUP4 AND SWAP2 POP POP SWAP3 SWAP2 POP POP JUMP JUMPDEST PUSH1 0x0 PUSH2 0x206D DUP4 DUP4 PUSH2 0x2043 JUMP JUMPDEST SWAP2 POP DUP3 PUSH1 0x2 MUL DUP3 OR SWAP1 POP SWAP3 SWAP2 POP POP JUMP JUMPDEST PUSH2 0x2086 DUP3 PUSH2 0x1380 JUMP JUMPDEST PUSH8 0xFFFFFFFFFFFFFFFF DUP2 GT ISZERO PUSH2 0x209F JUMPI PUSH2 0x209E PUSH2 0x17FC JUMP JUMPDEST JUMPDEST PUSH2 0x20A9 DUP3 SLOAD PUSH2 0x1E47 JUMP JUMPDEST PUSH2 0x20B4 DUP3 DUP3 DUP6 PUSH2 0x1FF0 JUMP JUMPDEST PUSH1 0x0 PUSH1 0x20 SWAP1 POP PUSH1 0x1F DUP4 GT PUSH1 0x1 DUP2 EQ PUSH2 0x20E7 JUMPI PUSH1 0x0 DUP5 ISZERO PUSH2 0x20D5 JUMPI DUP3 DUP8 ADD MLOAD SWAP1 POP JUMPDEST PUSH2 0x20DF DUP6 DUP3 PUSH2 0x2061 JUMP JUMPDEST DUP7 SSTORE POP PUSH2 0x2147 JUMP JUMPDEST PUSH1 0x1F NOT DUP5 AND PUSH2 0x20F5 DUP7 PUSH2 0x1EDB JUMP JUMPDEST PUSH1 0x0 JUMPDEST DUP3 DUP2 LT ISZERO PUSH2 0x211D JUMPI DUP5 DUP10 ADD MLOAD DUP3 SSTORE PUSH1 0x1 DUP3 ADD SWAP2 POP PUSH1 0x20 DUP6 ADD SWAP5 POP PUSH1 0x20 DUP2 ADD SWAP1 POP PUSH2 0x20F8 JUMP JUMPDEST DUP7 DUP4 LT ISZERO PUSH2 0x213A JUMPI DUP5 DUP10 ADD MLOAD PUSH2 0x2136 PUSH1 0x1F DUP10 AND DUP3 PUSH2 0x2043 JUMP JUMPDEST DUP4 SSTORE POP JUMPDEST PUSH1 0x1 PUSH1 0x2 DUP9 MUL ADD DUP9 SSTORE POP POP POP JUMPDEST POP POP POP POP POP POP JUMP JUMPDEST PUSH1 0x0 PUSH1 0x60 DUP3 ADD SWAP1 POP PUSH2 0x2164 PUSH1 0x0 DUP4 ADD DUP7 PUSH2 0x1371 JUMP JUMPDEST DUP2 DUP2 SUB PUSH1 0x20 DUP4 ADD MSTORE PUSH2 0x2176 DUP2 DUP6 PUSH2 0x13D7 JUMP JUMPDEST SWAP1 POP PUSH2 0x2185 PUSH1 0x40 DUP4 ADD DUP5 PUSH2 0x12A8 JUMP JUMPDEST SWAP5 SWAP4 POP POP POP POP JUMP JUMPDEST PUSH1 0x0 PUSH1 0x60 DUP3 ADD SWAP1 POP PUSH2 0x21A2 PUSH1 0x0 DUP4 ADD DUP7 PUSH2 0x1371 JUMP JUMPDEST PUSH2 0x21AF PUSH1 0x20 DUP4 ADD DUP6 PUSH2 0x1371 JUMP JUMPDEST PUSH2 0x21BC PUSH1 0x40 DUP4 ADD DUP5 PUSH2 0x12A8 JUMP JUMPDEST SWAP5 SWAP4 POP POP POP POP JUMP INVALID LOG2 PUSH5 0x6970667358 0x22 SLT KECCAK256 0xDD SWAP13 PUSH0 0xEE 0x25 0xD1 0x4D 0xD POP POP 0xB8 PUSH7 0x7FD0DEAB83192 DUP13 0xE8 PUSH13 0x389EC6A04A31903DCCF464736F PUSH13 0x63430008140033000000000000 "
        },
        "methodIdentifiers": {
          "claimFunds(uint256)": "1b55e338",
          "donateToIncident(uint256,uint256)": "e2c61e60",
          "dsx()": "d6f8b86f",
          "getAllIncidentsWithDonors()": "94854725",
          "getDonationAmount(uint256,address)": "e43826d8",
          "getDonorsForIncident(uint256)": "207c67c4",
          "getIncidentDetails(uint256)": "1e6420ee",
          "getTotalFundsRaised()": "0c3e2d2d",
          "getTotalUniqueDonors()": "3b085680",
          "incidentCount()": "a09b86ac",
          "reportIncident(string,uint256)": "c40cce5e"
        }
      }
    }
  }
}