{
  "_format": "hh-sol-artifact-1",
  "contractName": "ClimateWaiverEscrow",
  "sourceName": "contracts/ClimateWaiverEscrow.sol",
  "abi": [
    {
      "inputs": [
        {
          "internalType": "address",
          "name": "_dsxAddress",
          "type": "address"
        }
      ],
      "stateMutability": "nonpayable",
      "type": "constructor"
    },
    {
      "anonymous": false,
      "inputs": [
        {
          "indexed": true,
          "internalType": "uint256",
          "name": "incidentId",
          "type": "uint256"
        },
        {
          "indexed": false,
          "internalType": "address",
          "name": "recipient",
          "type": "address"
        },
        {
          "indexed": false,
          "internalType": "uint256",
          "name": "amount",
          "type": "uint256"
        }
      ],
      "name": "FundsClaimed",
      "type": "event"
    },
    {
      "anonymous": false,
      "inputs": [
        {
          "indexed": true,
          "internalType": "uint256",
          "name": "incidentId",
          "type": "uint256"
        },
        {
          "indexed": false,
          "internalType": "address",
          "name": "donor",
          "type": "address"
        },
        {
          "indexed": false,
          "internalType": "uint256",
          "name": "amount",
          "type": "uint256"
        }
      ],
      "name": "FundsRaised",
      "type": "event"
    },
    {
      "anonymous": false,
      "inputs": [
        {
          "indexed": true,
          "internalType": "uint256",
          "name": "incidentId",
          "type": "uint256"
        },
        {
          "indexed": false,
          "internalType": "address",
          "name": "reporter",
          "type": "address"
        },
        {
          "indexed": false,
          "internalType": "string",
          "name": "descriptionURL",
          "type": "string"
        },
        {
          "indexed": false,
          "internalType": "uint256",
          "name": "fundingGoal",
          "type": "uint256"
        }
      ],
      "name": "IncidentReported",
      "type": "event"
    },
    {
      "inputs": [
        {
          "internalType": "uint256",
          "name": "_incidentId",
          "type": "uint256"
        }
      ],
      "name": "claimFunds",
      "outputs": [],
      "stateMutability": "nonpayable",
      "type": "function"
    },
    {
      "inputs": [
        {
          "internalType": "uint256",
          "name": "_incidentId",
          "type": "uint256"
        },
        {
          "internalType": "uint256",
          "name": "_amount",
          "type": "uint256"
        }
      ],
      "name": "donateToIncident",
      "outputs": [],
      "stateMutability": "nonpayable",
      "type": "function"
    },
    {
      "inputs": [],
      "name": "dsx",
      "outputs": [
        {
          "internalType": "contract DisaXta",
          "name": "",
          "type": "address"
        }
      ],
      "stateMutability": "view",
      "type": "function"
    },
    {
      "inputs": [],
      "name": "getAllIncidentsWithDonors",
      "outputs": [
        {
          "components": [
            {
              "internalType": "uint256",
              "name": "incidentId",
              "type": "uint256"
            },
            {
              "internalType": "address",
              "name": "reporter",
              "type": "address"
            },
            {
              "internalType": "string",
              "name": "descriptionURL",
              "type": "string"
            },
            {
              "internalType": "uint256",
              "name": "fundingGoal",
              "type": "uint256"
            },
            {
              "internalType": "uint256",
              "name": "raisedAmount",
              "type": "uint256"
            },
            {
              "internalType": "bool",
              "name": "isClaimed",
              "type": "bool"
            },
            {
              "components": [
                {
                  "internalType": "address",
                  "name": "donorAddress",
                  "type": "address"
                },
                {
                  "internalType": "uint256",
                  "name": "amount",
                  "type": "uint256"
                }
              ],
              "internalType": "struct ClimateWaiverEscrow.Donor[]",
              "name": "donors",
              "type": "tuple[]"
            }
          ],
          "internalType": "struct ClimateWaiverEscrow.Incident[]",
          "name": "",
          "type": "tuple[]"
        }
      ],
      "stateMutability": "view",
      "type": "function"
    },
    {
      "inputs": [
        {
          "internalType": "uint256",
          "name": "_incidentId",
          "type": "uint256"
        },
        {
          "internalType": "address",
          "name": "_donor",
          "type": "address"
        }
      ],
      "name": "getDonationAmount",
      "outputs": [
        {
          "internalType": "uint256",
          "name": "",
          "type": "uint256"
        }
      ],
      "stateMutability": "view",
      "type": "function"
    },
    {
      "inputs": [
        {
          "internalType": "uint256",
          "name": "_incidentId",
          "type": "uint256"
        }
      ],
      "name": "getDonorsForIncident",
      "outputs": [
        {
          "components": [
            {
              "internalType": "address",
              "name": "donorAddress",
              "type": "address"
            },
            {
              "internalType": "uint256",
              "name": "amount",
              "type": "uint256"
            }
          ],
          "internalType": "struct ClimateWaiverEscrow.Donor[]",
          "name": "",
          "type": "tuple[]"
        }
      ],
      "stateMutability": "view",
      "type": "function"
    },
    {
      "inputs": [
        {
          "internalType": "uint256",
          "name": "_incidentId",
          "type": "uint256"
        }
      ],
      "name": "getIncidentDetails",
      "outputs": [
        {
          "internalType": "address",
          "name": "reporter",
          "type": "address"
        },
        {
          "internalType": "string",
          "name": "descriptionURL",
          "type": "string"
        },
        {
          "internalType": "uint256",
          "name": "fundingGoal",
          "type": "uint256"
        },
        {
          "internalType": "uint256",
          "name": "raisedAmount",
          "type": "uint256"
        },
        {
          "internalType": "bool",
          "name": "isClaimed",
          "type": "bool"
        }
      ],
      "stateMutability": "view",
      "type": "function"
    },
    {
      "inputs": [],
      "name": "getTotalFundsRaised",
      "outputs": [
        {
          "internalType": "uint256",
          "name": "",
          "type": "uint256"
        }
      ],
      "stateMutability": "view",
      "type": "function"
    },
    {
      "inputs": [],
      "name": "getTotalUniqueDonors",
      "outputs": [
        {
          "internalType": "uint256",
          "name": "",
          "type": "uint256"
        }
      ],
      "stateMutability": "view",
      "type": "function"
    },
    {
      "inputs": [],
      "name": "incidentCount",
      "outputs": [
        {
          "internalType": "uint256",
          "name": "",
          "type": "uint256"
        }
      ],
      "stateMutability": "view",
      "type": "function"
    },
    {
      "inputs": [
        {
          "internalType": "string",
          "name": "_descriptionURL",
          "type": "string"
        },
        {
          "internalType": "uint256",
          "name": "_fundingGoal",
          "type": "uint256"
        }
      ],
      "name": "reportIncident",
      "outputs": [],
      "stateMutability": "nonpayable",
      "type": "function"
    }
  ],
  "bytecode": "0x60806040523480156200001157600080fd5b5060405162002324380380620023248339818101604052810190620000379190620000e8565b806000806101000a81548173ffffffffffffffffffffffffffffffffffffffff021916908373ffffffffffffffffffffffffffffffffffffffff160217905550506200011a565b600080fd5b600073ffffffffffffffffffffffffffffffffffffffff82169050919050565b6000620000b08262000083565b9050919050565b620000c281620000a3565b8114620000ce57600080fd5b50565b600081519050620000e281620000b7565b92915050565b6000602082840312156200010157620001006200007e565b5b60006200011184828501620000d1565b91505092915050565b6121fa806200012a6000396000f3fe608060405234801561001057600080fd5b50600436106100a95760003560e01c80639485472511610071578063948547251461016a578063a09b86ac14610188578063c40cce5e146101a6578063d6f8b86f146101c2578063e2c61e60146101e0578063e43826d8146101fc576100a9565b80630c3e2d2d146100ae5780631b55e338146100cc5780631e6420ee146100e8578063207c67c41461011c5780633b0856801461014c575b600080fd5b6100b661022c565b6040516100c391906112b7565b60405180910390f35b6100e660048036038101906100e19190611312565b610282565b005b61010260048036038101906100fd9190611312565b610557565b60405161011395949392919061142b565b60405180910390f35b61013660048036038101906101319190611312565b6106ad565b6040516101439190611581565b60405180910390f35b6101546107d3565b60405161016191906112b7565b60405180910390f35b6101726107dd565b60405161017f91906117d0565b60405180910390f35b610190610a8c565b60405161019d91906112b7565b60405180910390f35b6101c060048036038101906101bb9190611927565b610a92565b005b6101ca610b96565b6040516101d791906119e2565b60405180910390f35b6101fa60048036038101906101f591906119fd565b610bba565b005b61021660048036038101906102119190611a69565b610f4f565b60405161022391906112b7565b60405180910390f35b600080600090506000600190505b600354811161027a576002600082815260200190815260200160002060040154826102659190611ad8565b9150808061027290611b0c565b91505061023a565b508091505090565b60035481111580156102945750600081115b6102d3576040517f08c379a00000000000000000000000000000000000000000000000000000000081526004016102ca90611ba0565b60405180910390fd5b60006002600083815260200190815260200160002090508060010160009054906101000a900473ffffffffffffffffffffffffffffffffffffffff1673ffffffffffffffffffffffffffffffffffffffff163373ffffffffffffffffffffffffffffffffffffffff161461037c576040517f08c379a000000000000000000000000000000000000000000000000000000000815260040161037390611c32565b60405180910390fd5b8060050160009054906101000a900460ff16156103ce576040517f08c379a00000000000000000000000000000000000000000000000000000000081526004016103c590611c9e565b60405180910390fd5b6000816004015411610415576040517f08c379a000000000000000000000000000000000000000000000000000000000815260040161040c90611d0a565b60405180910390fd5b60008160040154905060018260050160006101000a81548160ff02191690831515021790555060008054906101000a900473ffffffffffffffffffffffffffffffffffffffff1673ffffffffffffffffffffffffffffffffffffffff1663a9059cbb33836040518363ffffffff1660e01b8152600401610496929190611d2a565b6020604051808303816000875af11580156104b5573d6000803e3d6000fd5b505050506040513d601f19601f820116820180604052508101906104d99190611d7f565b610518576040517f08c379a000000000000000000000000000000000000000000000000000000000815260040161050f90611df8565b60405180910390fd5b827fa4eb50103b0591feb0bc913f479d92af5eb7ea33e8c397b49bab52ce6af26cb5338360405161054a929190611d2a565b60405180910390a2505050565b60006060600080600060035486111580156105725750600086115b6105b1576040517f08c379a00000000000000000000000000000000000000000000000000000000081526004016105a890611ba0565b60405180910390fd5b60006002600088815260200190815260200160002090508060010160009054906101000a900473ffffffffffffffffffffffffffffffffffffffff1681600201826003015483600401548460050160009054906101000a900460ff1683805461061990611e47565b80601f016020809104026020016040519081016040528092919081815260200182805461064590611e47565b80156106925780601f1061066757610100808354040283529160200191610692565b820191906000526020600020905b81548152906001019060200180831161067557829003601f168201915b50505050509350955095509550955095505091939590929450565b606060035482111580156106c15750600082115b610700576040517f08c379a00000000000000000000000000000000000000000000000000000000081526004016106f790611ba0565b60405180910390fd5b60026000838152602001908152602001600020600601805480602002602001604051908101604052809291908181526020016000905b828210156107c857838290600052602060002090600202016040518060400160405290816000820160009054906101000a900473ffffffffffffffffffffffffffffffffffffffff1673ffffffffffffffffffffffffffffffffffffffff1673ffffffffffffffffffffffffffffffffffffffff16815260200160018201548152505081526020019060010190610736565b505050509050919050565b6000600454905090565b6060600060035467ffffffffffffffff8111156107fd576107fc6117fc565b5b60405190808252806020026020018201604052801561083657816020015b610823611249565b81526020019060019003908161081b5790505b5090506000600190505b6003548111610a8457600260008281526020019081526020016000206040518060e0016040529081600082015481526020016001820160009054906101000a900473ffffffffffffffffffffffffffffffffffffffff1673ffffffffffffffffffffffffffffffffffffffff1673ffffffffffffffffffffffffffffffffffffffff1681526020016002820180546108d790611e47565b80601f016020809104026020016040519081016040528092919081815260200182805461090390611e47565b80156109505780601f1061092557610100808354040283529160200191610950565b820191906000526020600020905b81548152906001019060200180831161093357829003601f168201915b5050505050815260200160038201548152602001600482015481526020016005820160009054906101000a900460ff1615151515815260200160068201805480602002602001604051908101604052809291908181526020016000905b82821015610a3f57838290600052602060002090600202016040518060400160405290816000820160009054906101000a900473ffffffffffffffffffffffffffffffffffffffff1673ffffffffffffffffffffffffffffffffffffffff1673ffffffffffffffffffffffffffffffffffffffff168152602001600182015481525050815260200190600101906109ad565b505050508152505082600183610a559190611e78565b81518110610a6657610a65611eac565b5b60200260200101819052508080610a7c90611b0c565b915050610840565b508091505090565b60035481565b60036000815480929190610aa590611b0c565b9190505550600060026000600354815260200190815260200160002090506003548160000181905550338160010160006101000a81548173ffffffffffffffffffffffffffffffffffffffff021916908373ffffffffffffffffffffffffffffffffffffffff16021790555082816002019081610b22919061207d565b508181600301819055506000816004018190555060008160050160006101000a81548160ff0219169083151502179055506003547f3ff508bdf2223eed90b0fe0e0d9336f1d8398777e66810012410bd4af5254646338585604051610b899392919061214f565b60405180910390a2505050565b60008054906101000a900473ffffffffffffffffffffffffffffffffffffffff1681565b6003548211158015610bcc5750600082115b610c0b576040517f08c379a0000000000000000000000000000000000000000000000000000000008152600401610c0290611ba0565b60405180910390fd5b60006002600084815260200190815260200160002090508060050160009054906101000a900460ff1615610c74576040517f08c379a0000000000000000000000000000000000000000000000000000000008152600401610c6b90611c9e565b60405180910390fd5b60008054906101000a900473ffffffffffffffffffffffffffffffffffffffff1673ffffffffffffffffffffffffffffffffffffffff166323b872dd3330856040518463ffffffff1660e01b8152600401610cd19392919061218d565b6020604051808303816000875af1158015610cf0573d6000803e3d6000fd5b505050506040513d601f19601f82011682018060405250810190610d149190611d7f565b610d53576040517f08c379a0000000000000000000000000000000000000000000000000000000008152600401610d4a90611df8565b60405180910390fd5b6000805b8260060180549050811015610e3a573373ffffffffffffffffffffffffffffffffffffffff16836006018281548110610d9357610d92611eac565b5b906000526020600020906002020160000160009054906101000a900473ffffffffffffffffffffffffffffffffffffffff1673ffffffffffffffffffffffffffffffffffffffff1603610e275783836006018281548110610df757610df6611eac565b5b90600052602060002090600202016001016000828254610e179190611ad8565b9250508190555060019150610e3a565b8080610e3290611b0c565b915050610d57565b5080610eec578160060160405180604001604052803373ffffffffffffffffffffffffffffffffffffffff16815260200185815250908060018154018082558091505060019003906000526020600020906002020160009091909190915060008201518160000160006101000a81548173ffffffffffffffffffffffffffffffffffffffff021916908373ffffffffffffffffffffffffffffffffffffffff1602179055506020820151816001015550505b82826004016000828254610f009190611ad8565b92505081905550610f0f611096565b837fa1a7367b808c679c56e9c640d9cbca96f06689942487a0ed43593201f722718a3385604051610f41929190611d2a565b60405180910390a250505050565b60006003548311158015610f635750600083115b610fa2576040517f08c379a0000000000000000000000000000000000000000000000000000000008152600401610f9990611ba0565b60405180910390fd5b600060026000858152602001908152602001600020905060005b8160060180549050811015611089578373ffffffffffffffffffffffffffffffffffffffff16826006018281548110610ff857610ff7611eac565b5b906000526020600020906002020160000160009054906101000a900473ffffffffffffffffffffffffffffffffffffffff1673ffffffffffffffffffffffffffffffffffffffff16036110765781600601818154811061105b5761105a611eac565b5b90600052602060002090600202016001015492505050611090565b808061108190611b0c565b915050610fbc565b5060009150505b92915050565b6000600190505b600354811161124657600060026000838152602001908152602001600020905060005b816006018054905081101561123157600160008360060183815481106110e9576110e8611eac565b5b906000526020600020906002020160000160009054906101000a900473ffffffffffffffffffffffffffffffffffffffff1673ffffffffffffffffffffffffffffffffffffffff1673ffffffffffffffffffffffffffffffffffffffff16815260200190815260200160002060009054906101000a900460ff1661121e57600180600084600601848154811061118257611181611eac565b5b906000526020600020906002020160000160009054906101000a900473ffffffffffffffffffffffffffffffffffffffff1673ffffffffffffffffffffffffffffffffffffffff1673ffffffffffffffffffffffffffffffffffffffff16815260200190815260200160002060006101000a81548160ff0219169083151502179055506004600081548092919061121890611b0c565b91905055505b808061122990611b0c565b9150506110c0565b5050808061123e90611b0c565b91505061109d565b50565b6040518060e0016040528060008152602001600073ffffffffffffffffffffffffffffffffffffffff168152602001606081526020016000815260200160008152602001600015158152602001606081525090565b6000819050919050565b6112b18161129e565b82525050565b60006020820190506112cc60008301846112a8565b92915050565b6000604051905090565b600080fd5b600080fd5b6112ef8161129e565b81146112fa57600080fd5b50565b60008135905061130c816112e6565b92915050565b600060208284031215611328576113276112dc565b5b6000611336848285016112fd565b91505092915050565b600073ffffffffffffffffffffffffffffffffffffffff82169050919050565b600061136a8261133f565b9050919050565b61137a8161135f565b82525050565b600081519050919050565b600082825260208201905092915050565b60005b838110156113ba57808201518184015260208101905061139f565b60008484015250505050565b6000601f19601f8301169050919050565b60006113e282611380565b6113ec818561138b565b93506113fc81856020860161139c565b611405816113c6565b840191505092915050565b60008115159050919050565b61142581611410565b82525050565b600060a0820190506114406000830188611371565b818103602083015261145281876113d7565b905061146160408301866112a8565b61146e60608301856112a8565b61147b608083018461141c565b9695505050505050565b600081519050919050565b600082825260208201905092915050565b6000819050602082019050919050565b6114ba8161135f565b82525050565b6114c98161129e565b82525050565b6040820160008201516114e560008501826114b1565b5060208201516114f860208501826114c0565b50505050565b600061150a83836114cf565b60408301905092915050565b6000602082019050919050565b600061152e82611485565b6115388185611490565b9350611543836114a1565b8060005b8381101561157457815161155b88826114fe565b975061156683611516565b925050600181019050611547565b5085935050505092915050565b6000602082019050818103600083015261159b8184611523565b905092915050565b600081519050919050565b600082825260208201905092915050565b6000819050602082019050919050565b600082825260208201905092915050565b60006115eb82611380565b6115f581856115cf565b935061160581856020860161139c565b61160e816113c6565b840191505092915050565b61162281611410565b82525050565b600082825260208201905092915050565b600061164482611485565b61164e8185611628565b9350611659836114a1565b8060005b8381101561168a57815161167188826114fe565b975061167c83611516565b92505060018101905061165d565b5085935050505092915050565b600060e0830160008301516116af60008601826114c0565b5060208301516116c260208601826114b1565b50604083015184820360408601526116da82826115e0565b91505060608301516116ef60608601826114c0565b50608083015161170260808601826114c0565b5060a083015161171560a0860182611619565b5060c083015184820360c086015261172d8282611639565b9150508091505092915050565b60006117468383611697565b905092915050565b6000602082019050919050565b6000611766826115a3565b61177081856115ae565b935083602082028501611782856115bf565b8060005b858110156117be578484038952815161179f858261173a565b94506117aa8361174e565b925060208a01995050600181019050611786565b50829750879550505050505092915050565b600060208201905081810360008301526117ea818461175b565b905092915050565b600080fd5b600080fd5b7f4e487b7100000000000000000000000000000000000000000000000000000000600052604160045260246000fd5b611834826113c6565b810181811067ffffffffffffffff82111715611853576118526117fc565b5b80604052505050565b60006118666112d2565b9050611872828261182b565b919050565b600067ffffffffffffffff821115611892576118916117fc565b5b61189b826113c6565b9050602081019050919050565b82818337600083830152505050565b60006118ca6118c584611877565b61185c565b9050828152602081018484840111156118e6576118e56117f7565b5b6118f18482856118a8565b509392505050565b600082601f83011261190e5761190d6117f2565b5b813561191e8482602086016118b7565b91505092915050565b6000806040838503121561193e5761193d6112dc565b5b600083013567ffffffffffffffff81111561195c5761195b6112e1565b5b611968858286016118f9565b9250506020611979858286016112fd565b9150509250929050565b6000819050919050565b60006119a86119a361199e8461133f565b611983565b61133f565b9050919050565b60006119ba8261198d565b9050919050565b60006119cc826119af565b9050919050565b6119dc816119c1565b82525050565b60006020820190506119f760008301846119d3565b92915050565b60008060408385031215611a1457611a136112dc565b5b6000611a22858286016112fd565b9250506020611a33858286016112fd565b9150509250929050565b611a468161135f565b8114611a5157600080fd5b50565b600081359050611a6381611a3d565b92915050565b60008060408385031215611a8057611a7f6112dc565b5b6000611a8e858286016112fd565b9250506020611a9f85828601611a54565b9150509250929050565b7f4e487b7100000000000000000000000000000000000000000000000000000000600052601160045260246000fd5b6000611ae38261129e565b9150611aee8361129e565b9250828201905080821115611b0657611b05611aa9565b5b92915050565b6000611b178261129e565b91507fffffffffffffffffffffffffffffffffffffffffffffffffffffffffffffffff8203611b4957611b48611aa9565b5b600182019050919050565b7f496e76616c696420696e636964656e7420494400000000000000000000000000600082015250565b6000611b8a60138361138b565b9150611b9582611b54565b602082019050919050565b60006020820190508181036000830152611bb981611b7d565b9050919050565b7f4f6e6c792074686520696e636964656e74207265706f727465722063616e206360008201527f6c61696d2066756e647300000000000000000000000000000000000000000000602082015250565b6000611c1c602a8361138b565b9150611c2782611bc0565b604082019050919050565b60006020820190508181036000830152611c4b81611c0f565b9050919050565b7f46756e6473206861766520616c7265616479206265656e20636c61696d656400600082015250565b6000611c88601f8361138b565b9150611c9382611c52565b602082019050919050565b60006020820190508181036000830152611cb781611c7b565b9050919050565b7f4e6f2066756e647320617661696c61626c6520746f20636c61696d0000000000600082015250565b6000611cf4601b8361138b565b9150611cff82611cbe565b602082019050919050565b60006020820190508181036000830152611d2381611ce7565b9050919050565b6000604082019050611d3f6000830185611371565b611d4c60208301846112a8565b9392505050565b611d5c81611410565b8114611d6757600080fd5b50565b600081519050611d7981611d53565b92915050565b600060208284031215611d9557611d946112dc565b5b6000611da384828501611d6a565b91505092915050565b7f5472616e73666572206661696c65640000000000000000000000000000000000600082015250565b6000611de2600f8361138b565b9150611ded82611dac565b602082019050919050565b60006020820190508181036000830152611e1181611dd5565b9050919050565b7f4e487b7100000000000000000000000000000000000000000000000000000000600052602260045260246000fd5b60006002820490506001821680611e5f57607f821691505b602082108103611e7257611e71611e18565b5b50919050565b6000611e838261129e565b9150611e8e8361129e565b9250828203905081811115611ea657611ea5611aa9565b5b92915050565b7f4e487b7100000000000000000000000000000000000000000000000000000000600052603260045260246000fd5b60008190508160005260206000209050919050565b60006020601f8301049050919050565b600082821b905092915050565b600060088302611f3d7fffffffffffffffffffffffffffffffffffffffffffffffffffffffffffffffff82611f00565b611f478683611f00565b95508019841693508086168417925050509392505050565b6000611f7a611f75611f708461129e565b611983565b61129e565b9050919050565b6000819050919050565b611f9483611f5f565b611fa8611fa082611f81565b848454611f0d565b825550505050565b600090565b611fbd611fb0565b611fc8818484611f8b565b505050565b5b81811015611fec57611fe1600082611fb5565b600181019050611fce565b5050565b601f8211156120315761200281611edb565b61200b84611ef0565b8101602085101561201a578190505b61202e61202685611ef0565b830182611fcd565b50505b505050565b600082821c905092915050565b600061205460001984600802612036565b1980831691505092915050565b600061206d8383612043565b9150826002028217905092915050565b61208682611380565b67ffffffffffffffff81111561209f5761209e6117fc565b5b6120a98254611e47565b6120b4828285611ff0565b600060209050601f8311600181146120e757600084156120d5578287015190505b6120df8582612061565b865550612147565b601f1984166120f586611edb565b60005b8281101561211d578489015182556001820191506020850194506020810190506120f8565b8683101561213a5784890151612136601f891682612043565b8355505b6001600288020188555050505b505050505050565b60006060820190506121646000830186611371565b818103602083015261217681856113d7565b905061218560408301846112a8565b949350505050565b60006060820190506121a26000830186611371565b6121af6020830185611371565b6121bc60408301846112a8565b94935050505056fea2646970667358221220dd9c5fee25d14d0d5050b86607fd0deab831928ce86c389ec6a04a31903dccf464736f6c63430008140033",
  "linkReferences": {},
  "deployedLinkReferences": {}
}