{
  "_format": "hh-sol-artifact-1",
  "contractName": "ClimateWaiverEscrow",
  "sourceName": "contracts/ClimateWaiverEscrow.sol",
  "abi": [
    {
      "inputs": [
        {
          "internalType": "address",
          "name": "_dsxAddress",
          "type": "address"
        }
      ],
      "stateMutability": "nonpayable",
      "type": "constructor"
    },
    {
      "anonymous": false,
      "inputs": [
        {
          "indexed": true,
          "internalType": "uint256",
          "name": "incidentId",
          "type": "uint256"
        },
        {
          "indexed": false,
          "internalType": "address",
          "name": "recipient",
          "type": "address"
        },
        {
          "indexed": false,
          "internalType": "uint256",
          "name": "amount",
          "type": "uint256"
        }
      ],
      "name": "FundsClaimed",
      "type": "event"
    },
    {
      "anonymous": false,
      "inputs": [
        {
          "indexed": true,
          "internalType": "uint256",
          "name": "incidentId",
          "type": "uint256"
        },
        {
          "indexed": false,
          "internalType": "address",
          "name": "donor",
          "type": "address"
        },
        {
          "indexed": false,
          "internalType": "uint256",
          "name": "amount",
          "type": "uint256"
        }
      ],
      "name": "FundsRaised",
      "type": "event"
    },
    {
      "anonymous": false,
      "inputs": [
        {
          "indexed": true,
          "internalType": "uint256",
          "name": "incidentId",
          "type": "uint256"
        },
        {
          "indexed": false,
          "internalType": "address",
          "name": "reporter",
          "type": "address"
        },
        {
          "indexed": false,
          "internalType": "string",
          "name": "descriptionURL",
          "type": "string"
        },
        {
          "indexed": false,
          "internalType": "uint256",
          "name": "fundingGoal",
          "type": "uint256"
        }
      ],
      "name": "IncidentReported",
      "type": "event"
    },
    {
      "inputs": [
        {
          "internalType": "uint256",
          "name": "_incidentId",
          "type": "uint256"
        }
      ],
      "name": "claimFunds",
      "outputs": [],
      "stateMutability": "nonpayable",
      "type": "function"
    },
    {
      "inputs": [
        {
          "internalType": "uint256",
          "name": "_incidentId",
          "type": "uint256"
        },
        {
          "internalType": "uint256",
          "name": "_amount",
          "type": "uint256"
        }
      ],
      "name": "donateToIncident",
      "outputs": [],
      "stateMutability": "nonpayable",
      "type": "function"
    },
    {
      "inputs": [],
      "name": "dsx",
      "outputs": [
        {
          "internalType": "contract DisaXta",
          "name": "",
          "type": "address"
        }
      ],
      "stateMutability": "view",
      "type": "function"
    },
    {
      "inputs": [
        {
          "internalType": "uint256",
          "name": "_incidentId",
          "type": "uint256"
        },
        {
          "internalType": "address",
          "name": "_donor",
          "type": "address"
        }
      ],
      "name": "getDonationAmount",
      "outputs": [
        {
          "internalType": "uint256",
          "name": "",
          "type": "uint256"
        }
      ],
      "stateMutability": "view",
      "type": "function"
    },
    {
      "inputs": [
        {
          "internalType": "uint256",
          "name": "_incidentId",
          "type": "uint256"
        }
      ],
      "name": "getIncidentDetails",
      "outputs": [
        {
          "internalType": "address",
          "name": "reporter",
          "type": "address"
        },
        {
          "internalType": "string",
          "name": "descriptionURL",
          "type": "string"
        },
        {
          "internalType": "uint256",
          "name": "fundingGoal",
          "type": "uint256"
        },
        {
          "internalType": "uint256",
          "name": "raisedAmount",
          "type": "uint256"
        },
        {
          "internalType": "bool",
          "name": "isClaimed",
          "type": "bool"
        }
      ],
      "stateMutability": "view",
      "type": "function"
    },
    {
      "inputs": [],
      "name": "incidentCount",
      "outputs": [
        {
          "internalType": "uint256",
          "name": "",
          "type": "uint256"
        }
      ],
      "stateMutability": "view",
      "type": "function"
    },
    {
      "inputs": [
        {
          "internalType": "string",
          "name": "_descriptionURL",
          "type": "string"
        },
        {
          "internalType": "uint256",
          "name": "_fundingGoal",
          "type": "uint256"
        }
      ],
      "name": "reportIncident",
      "outputs": [],
      "stateMutability": "nonpayable",
      "type": "function"
    }
  ],
  "bytecode": "0x60806040523480156200001157600080fd5b5060405162001674380380620016748339818101604052810190620000379190620000e8565b806000806101000a81548173ffffffffffffffffffffffffffffffffffffffff021916908373ffffffffffffffffffffffffffffffffffffffff160217905550506200011a565b600080fd5b600073ffffffffffffffffffffffffffffffffffffffff82169050919050565b6000620000b08262000083565b9050919050565b620000c281620000a3565b8114620000ce57600080fd5b50565b600081519050620000e281620000b7565b92915050565b6000602082840312156200010157620001006200007e565b5b60006200011184828501620000d1565b91505092915050565b61154a806200012a6000396000f3fe608060405234801561001057600080fd5b506004361061007d5760003560e01c8063c40cce5e1161005b578063c40cce5e146100f0578063d6f8b86f1461010c578063e2c61e601461012a578063e43826d8146101465761007d565b80631b55e338146100825780631e6420ee1461009e578063a09b86ac146100d2575b600080fd5b61009c60048036038101906100979190610a08565b610176565b005b6100b860048036038101906100b39190610a08565b61044b565b6040516100c9959493929190610b30565b60405180910390f35b6100da6105a1565b6040516100e79190610b8a565b60405180910390f35b61010a60048036038101906101059190610cda565b6105a7565b005b6101146106a0565b6040516101219190610d95565b60405180910390f35b610144600480360381019061013f9190610db0565b6106c4565b005b610160600480360381019061015b9190610e1c565b61090f565b60405161016d9190610b8a565b60405180910390f35b60025481111580156101885750600081115b6101c7576040517f08c379a00000000000000000000000000000000000000000000000000000000081526004016101be90610ea8565b60405180910390fd5b60006001600083815260200190815260200160002090508060000160009054906101000a900473ffffffffffffffffffffffffffffffffffffffff1673ffffffffffffffffffffffffffffffffffffffff163373ffffffffffffffffffffffffffffffffffffffff1614610270576040517f08c379a000000000000000000000000000000000000000000000000000000000815260040161026790610f3a565b60405180910390fd5b8060040160009054906101000a900460ff16156102c2576040517f08c379a00000000000000000000000000000000000000000000000000000000081526004016102b990610fa6565b60405180910390fd5b6000816003015411610309576040517f08c379a000000000000000000000000000000000000000000000000000000000815260040161030090611012565b60405180910390fd5b60008160030154905060018260040160006101000a81548160ff02191690831515021790555060008054906101000a900473ffffffffffffffffffffffffffffffffffffffff1673ffffffffffffffffffffffffffffffffffffffff1663a9059cbb33836040518363ffffffff1660e01b815260040161038a929190611032565b6020604051808303816000875af11580156103a9573d6000803e3d6000fd5b505050506040513d601f19601f820116820180604052508101906103cd9190611087565b61040c576040517f08c379a000000000000000000000000000000000000000000000000000000000815260040161040390611100565b60405180910390fd5b827fa4eb50103b0591feb0bc913f479d92af5eb7ea33e8c397b49bab52ce6af26cb5338360405161043e929190611032565b60405180910390a2505050565b60006060600080600060025486111580156104665750600086115b6104a5576040517f08c379a000000000000000000000000000000000000000000000000000000000815260040161049c90610ea8565b60405180910390fd5b60006001600088815260200190815260200160002090508060000160009054906101000a900473ffffffffffffffffffffffffffffffffffffffff1681600101826002015483600301548460040160009054906101000a900460ff1683805461050d9061114f565b80601f01602080910402602001604051908101604052809291908181526020018280546105399061114f565b80156105865780601f1061055b57610100808354040283529160200191610586565b820191906000526020600020905b81548152906001019060200180831161056957829003601f168201915b50505050509350955095509550955095505091939590929450565b60025481565b600260008154809291906105ba906111af565b919050555060006001600060025481526020019081526020016000209050338160000160006101000a81548173ffffffffffffffffffffffffffffffffffffffff021916908373ffffffffffffffffffffffffffffffffffffffff1602179055508281600101908161062c9190611399565b508181600201819055506000816003018190555060008160040160006101000a81548160ff0219169083151502179055506002547f3ff508bdf2223eed90b0fe0e0d9336f1d8398777e66810012410bd4af52546463385856040516106939392919061146b565b60405180910390a2505050565b60008054906101000a900473ffffffffffffffffffffffffffffffffffffffff1681565b60025482111580156106d65750600082115b610715576040517f08c379a000000000000000000000000000000000000000000000000000000000815260040161070c90610ea8565b60405180910390fd5b60006001600084815260200190815260200160002090508060040160009054906101000a900460ff161561077e576040517f08c379a000000000000000000000000000000000000000000000000000000000815260040161077590610fa6565b60405180910390fd5b60008054906101000a900473ffffffffffffffffffffffffffffffffffffffff1673ffffffffffffffffffffffffffffffffffffffff166323b872dd3330856040518463ffffffff1660e01b81526004016107db939291906114a9565b6020604051808303816000875af11580156107fa573d6000803e3d6000fd5b505050506040513d601f19601f8201168201806040525081019061081e9190611087565b61085d576040517f08c379a000000000000000000000000000000000000000000000000000000000815260040161085490611100565b60405180910390fd5b818160050160003373ffffffffffffffffffffffffffffffffffffffff1673ffffffffffffffffffffffffffffffffffffffff16815260200190815260200160002060008282546108ae91906114e0565b92505081905550818160030160008282546108c991906114e0565b92505081905550827fa1a7367b808c679c56e9c640d9cbca96f06689942487a0ed43593201f722718a3384604051610902929190611032565b60405180910390a2505050565b600060025483111580156109235750600083115b610962576040517f08c379a000000000000000000000000000000000000000000000000000000000815260040161095990610ea8565b60405180910390fd5b6001600084815260200190815260200160002060050160008373ffffffffffffffffffffffffffffffffffffffff1673ffffffffffffffffffffffffffffffffffffffff16815260200190815260200160002054905092915050565b6000604051905090565b600080fd5b600080fd5b6000819050919050565b6109e5816109d2565b81146109f057600080fd5b50565b600081359050610a02816109dc565b92915050565b600060208284031215610a1e57610a1d6109c8565b5b6000610a2c848285016109f3565b91505092915050565b600073ffffffffffffffffffffffffffffffffffffffff82169050919050565b6000610a6082610a35565b9050919050565b610a7081610a55565b82525050565b600081519050919050565b600082825260208201905092915050565b60005b83811015610ab0578082015181840152602081019050610a95565b60008484015250505050565b6000601f19601f8301169050919050565b6000610ad882610a76565b610ae28185610a81565b9350610af2818560208601610a92565b610afb81610abc565b840191505092915050565b610b0f816109d2565b82525050565b60008115159050919050565b610b2a81610b15565b82525050565b600060a082019050610b456000830188610a67565b8181036020830152610b578187610acd565b9050610b666040830186610b06565b610b736060830185610b06565b610b806080830184610b21565b9695505050505050565b6000602082019050610b9f6000830184610b06565b92915050565b600080fd5b600080fd5b7f4e487b7100000000000000000000000000000000000000000000000000000000600052604160045260246000fd5b610be782610abc565b810181811067ffffffffffffffff82111715610c0657610c05610baf565b5b80604052505050565b6000610c196109be565b9050610c258282610bde565b919050565b600067ffffffffffffffff821115610c4557610c44610baf565b5b610c4e82610abc565b9050602081019050919050565b82818337600083830152505050565b6000610c7d610c7884610c2a565b610c0f565b905082815260208101848484011115610c9957610c98610baa565b5b610ca4848285610c5b565b509392505050565b600082601f830112610cc157610cc0610ba5565b5b8135610cd1848260208601610c6a565b91505092915050565b60008060408385031215610cf157610cf06109c8565b5b600083013567ffffffffffffffff811115610d0f57610d0e6109cd565b5b610d1b85828601610cac565b9250506020610d2c858286016109f3565b9150509250929050565b6000819050919050565b6000610d5b610d56610d5184610a35565b610d36565b610a35565b9050919050565b6000610d6d82610d40565b9050919050565b6000610d7f82610d62565b9050919050565b610d8f81610d74565b82525050565b6000602082019050610daa6000830184610d86565b92915050565b60008060408385031215610dc757610dc66109c8565b5b6000610dd5858286016109f3565b9250506020610de6858286016109f3565b9150509250929050565b610df981610a55565b8114610e0457600080fd5b50565b600081359050610e1681610df0565b92915050565b60008060408385031215610e3357610e326109c8565b5b6000610e41858286016109f3565b9250506020610e5285828601610e07565b9150509250929050565b7f496e76616c696420696e636964656e7420494400000000000000000000000000600082015250565b6000610e92601383610a81565b9150610e9d82610e5c565b602082019050919050565b60006020820190508181036000830152610ec181610e85565b9050919050565b7f4f6e6c792074686520696e636964656e74207265706f727465722063616e206360008201527f6c61696d2066756e647300000000000000000000000000000000000000000000602082015250565b6000610f24602a83610a81565b9150610f2f82610ec8565b604082019050919050565b60006020820190508181036000830152610f5381610f17565b9050919050565b7f46756e6473206861766520616c7265616479206265656e20636c61696d656400600082015250565b6000610f90601f83610a81565b9150610f9b82610f5a565b602082019050919050565b60006020820190508181036000830152610fbf81610f83565b9050919050565b7f4e6f2066756e647320617661696c61626c6520746f20636c61696d0000000000600082015250565b6000610ffc601b83610a81565b915061100782610fc6565b602082019050919050565b6000602082019050818103600083015261102b81610fef565b9050919050565b60006040820190506110476000830185610a67565b6110546020830184610b06565b9392505050565b61106481610b15565b811461106f57600080fd5b50565b6000815190506110818161105b565b92915050565b60006020828403121561109d5761109c6109c8565b5b60006110ab84828501611072565b91505092915050565b7f5472616e73666572206661696c65640000000000000000000000000000000000600082015250565b60006110ea600f83610a81565b91506110f5826110b4565b602082019050919050565b60006020820190508181036000830152611119816110dd565b9050919050565b7f4e487b7100000000000000000000000000000000000000000000000000000000600052602260045260246000fd5b6000600282049050600182168061116757607f821691505b60208210810361117a57611179611120565b5b50919050565b7f4e487b7100000000000000000000000000000000000000000000000000000000600052601160045260246000fd5b60006111ba826109d2565b91507fffffffffffffffffffffffffffffffffffffffffffffffffffffffffffffffff82036111ec576111eb611180565b5b600182019050919050565b60008190508160005260206000209050919050565b60006020601f8301049050919050565b600082821b905092915050565b6000600883026112597fffffffffffffffffffffffffffffffffffffffffffffffffffffffffffffffff8261121c565b611263868361121c565b95508019841693508086168417925050509392505050565b600061129661129161128c846109d2565b610d36565b6109d2565b9050919050565b6000819050919050565b6112b08361127b565b6112c46112bc8261129d565b848454611229565b825550505050565b600090565b6112d96112cc565b6112e48184846112a7565b505050565b5b81811015611308576112fd6000826112d1565b6001810190506112ea565b5050565b601f82111561134d5761131e816111f7565b6113278461120c565b81016020851015611336578190505b61134a6113428561120c565b8301826112e9565b50505b505050565b600082821c905092915050565b600061137060001984600802611352565b1980831691505092915050565b6000611389838361135f565b9150826002028217905092915050565b6113a282610a76565b67ffffffffffffffff8111156113bb576113ba610baf565b5b6113c5825461114f565b6113d082828561130c565b600060209050601f83116001811461140357600084156113f1578287015190505b6113fb858261137d565b865550611463565b601f198416611411866111f7565b60005b8281101561143957848901518255600182019150602085019450602081019050611414565b868310156114565784890151611452601f89168261135f565b8355505b6001600288020188555050505b505050505050565b60006060820190506114806000830186610a67565b81810360208301526114928185610acd565b90506114a16040830184610b06565b949350505050565b60006060820190506114be6000830186610a67565b6114cb6020830185610a67565b6114d86040830184610b06565b949350505050565b60006114eb826109d2565b91506114f6836109d2565b925082820190508082111561150e5761150d611180565b5b9291505056fea2646970667358221220d88ffcea04c78b5592647ad64ecbf7a649ae20485b86f009a3f350ee6846e29e64736f6c63430008140033",
  "linkReferences": {},
  "deployedLinkReferences": {}
}