{
  "_format": "hh-sol-artifact-1",
  "contractName": "DisaXta",
  "sourceName": "contracts/DisaXta.sol",
  "abi": [
    {
      "inputs": [],
      "stateMutability": "nonpayable",
      "type": "constructor"
    },
    {
      "inputs": [
        {
          "internalType": "address",
          "name": "spender",
          "type": "address"
        },
        {
          "internalType": "uint256",
          "name": "allowance",
          "type": "uint256"
        },
        {
          "internalType": "uint256",
          "name": "needed",
          "type": "uint256"
        }
      ],
      "name": "ERC20InsufficientAllowance",
      "type": "error"
    },
    {
      "inputs": [
        {
          "internalType": "address",
          "name": "sender",
          "type": "address"
        },
        {
          "internalType": "uint256",
          "name": "balance",
          "type": "uint256"
        },
        {
          "internalType": "uint256",
          "name": "needed",
          "type": "uint256"
        }
      ],
      "name": "ERC20InsufficientBalance",
      "type": "error"
    },
    {
      "inputs": [
        {
          "internalType": "address",
          "name": "approver",
          "type": "address"
        }
      ],
      "name": "ERC20InvalidApprover",
      "type": "error"
    },
    {
      "inputs": [
        {
          "internalType": "address",
          "name": "receiver",
          "type": "address"
        }
      ],
      "name": "ERC20InvalidReceiver",
      "type": "error"
    },
    {
      "inputs": [
        {
          "internalType": "address",
          "name": "sender",
          "type": "address"
        }
      ],
      "name": "ERC20InvalidSender",
      "type": "error"
    },
    {
      "inputs": [
        {
          "internalType": "address",
          "name": "spender",
          "type": "address"
        }
      ],
      "name": "ERC20InvalidSpender",
      "type": "error"
    },
    {
      "inputs": [
        {
          "internalType": "address",
          "name": "owner",
          "type": "address"
        }
      ],
      "name": "OwnableInvalidOwner",
      "type": "error"
    },
    {
      "inputs": [
        {
          "internalType": "address",
          "name": "account",
          "type": "address"
        }
      ],
      "name": "OwnableUnauthorizedAccount",
      "type": "error"
    },
    {
      "anonymous": false,
      "inputs": [
        {
          "indexed": true,
          "internalType": "address",
          "name": "owner",
          "type": "address"
        },
        {
          "indexed": true,
          "internalType": "address",
          "name": "spender",
          "type": "address"
        },
        {
          "indexed": false,
          "internalType": "uint256",
          "name": "value",
          "type": "uint256"
        }
      ],
      "name": "Approval",
      "type": "event"
    },
    {
      "anonymous": false,
      "inputs": [
        {
          "indexed": true,
          "internalType": "address",
          "name": "previousOwner",
          "type": "address"
        },
        {
          "indexed": true,
          "internalType": "address",
          "name": "newOwner",
          "type": "address"
        }
      ],
      "name": "OwnershipTransferred",
      "type": "event"
    },
    {
      "anonymous": false,
      "inputs": [
        {
          "indexed": true,
          "internalType": "address",
          "name": "from",
          "type": "address"
        },
        {
          "indexed": true,
          "internalType": "address",
          "name": "to",
          "type": "address"
        },
        {
          "indexed": false,
          "internalType": "uint256",
          "name": "value",
          "type": "uint256"
        }
      ],
      "name": "Transfer",
      "type": "event"
    },
    {
      "inputs": [],
      "name": "INITIAL_SUPPLY",
      "outputs": [
        {
          "internalType": "uint256",
          "name": "",
          "type": "uint256"
        }
      ],
      "stateMutability": "view",
      "type": "function"
    },
    {
      "inputs": [
        {
          "internalType": "address",
          "name": "owner",
          "type": "address"
        },
        {
          "internalType": "address",
          "name": "spender",
          "type": "address"
        }
      ],
      "name": "allowance",
      "outputs": [
        {
          "internalType": "uint256",
          "name": "",
          "type": "uint256"
        }
      ],
      "stateMutability": "view",
      "type": "function"
    },
    {
      "inputs": [
        {
          "internalType": "address",
          "name": "spender",
          "type": "address"
        },
        {
          "internalType": "uint256",
          "name": "value",
          "type": "uint256"
        }
      ],
      "name": "approve",
      "outputs": [
        {
          "internalType": "bool",
          "name": "",
          "type": "bool"
        }
      ],
      "stateMutability": "nonpayable",
      "type": "function"
    },
    {
      "inputs": [
        {
          "internalType": "address",
          "name": "account",
          "type": "address"
        }
      ],
      "name": "balanceOf",
      "outputs": [
        {
          "internalType": "uint256",
          "name": "",
          "type": "uint256"
        }
      ],
      "stateMutability": "view",
      "type": "function"
    },
    {
      "inputs": [],
      "name": "decimals",
      "outputs": [
        {
          "internalType": "uint8",
          "name": "",
          "type": "uint8"
        }
      ],
      "stateMutability": "view",
      "type": "function"
    },
    {
      "inputs": [
        {
          "internalType": "address",
          "name": "to",
          "type": "address"
        },
        {
          "internalType": "uint256",
          "name": "amount",
          "type": "uint256"
        }
      ],
      "name": "mint",
      "outputs": [],
      "stateMutability": "nonpayable",
      "type": "function"
    },
    {
      "inputs": [],
      "name": "name",
      "outputs": [
        {
          "internalType": "string",
          "name": "",
          "type": "string"
        }
      ],
      "stateMutability": "view",
      "type": "function"
    },
    {
      "inputs": [],
      "name": "owner",
      "outputs": [
        {
          "internalType": "address",
          "name": "",
          "type": "address"
        }
      ],
      "stateMutability": "view",
      "type": "function"
    },
    {
      "inputs": [],
      "name": "renounceOwnership",
      "outputs": [],
      "stateMutability": "nonpayable",
      "type": "function"
    },
    {
      "inputs": [],
      "name": "symbol",
      "outputs": [
        {
          "internalType": "string",
          "name": "",
          "type": "string"
        }
      ],
      "stateMutability": "view",
      "type": "function"
    },
    {
      "inputs": [],
      "name": "totalSupply",
      "outputs": [
        {
          "internalType": "uint256",
          "name": "",
          "type": "uint256"
        }
      ],
      "stateMutability": "view",
      "type": "function"
    },
    {
      "inputs": [
        {
          "internalType": "address",
          "name": "to",
          "type": "address"
        },
        {
          "internalType": "uint256",
          "name": "value",
          "type": "uint256"
        }
      ],
      "name": "transfer",
      "outputs": [
        {
          "internalType": "bool",
          "name": "",
          "type": "bool"
        }
      ],
      "stateMutability": "nonpayable",
      "type": "function"
    },
    {
      "inputs": [
        {
          "internalType": "address",
          "name": "from",
          "type": "address"
        },
        {
          "internalType": "address",
          "name": "to",
          "type": "address"
        },
        {
          "internalType": "uint256",
          "name": "value",
          "type": "uint256"
        }
      ],
      "name": "transferFrom",
      "outputs": [
        {
          "internalType": "bool",
          "name": "",
          "type": "bool"
        }
      ],
      "stateMutability": "nonpayable",
      "type": "function"
    },
    {
      "inputs": [
        {
          "internalType": "address",
          "name": "newOwner",
          "type": "address"
        }
      ],
      "name": "transferOwnership",
      "outputs": [],
      "stateMutability": "nonpayable",
      "type": "function"
    }
  ],
  "bytecode": "0x60806040523480156200001157600080fd5b50336040518060400160405280600781526020017f44697361587461000000000000000000000000000000000000000000000000008152506040518060400160405280600381526020017f445358000000000000000000000000000000000000000000000000000000000081525081600390816200009091906200074b565b508060049081620000a291906200074b565b505050600073ffffffffffffffffffffffffffffffffffffffff168173ffffffffffffffffffffffffffffffffffffffff16036200011a5760006040517f1e4fbdf700000000000000000000000000000000000000000000000000000000815260040162000111919062000877565b60405180910390fd5b6200012b816200014e60201b60201c565b50620001483369d3c21bcecceda10000006200021460201b60201c565b62000969565b6000600560009054906101000a900473ffffffffffffffffffffffffffffffffffffffff16905081600560006101000a81548173ffffffffffffffffffffffffffffffffffffffff021916908373ffffffffffffffffffffffffffffffffffffffff1602179055508173ffffffffffffffffffffffffffffffffffffffff168173ffffffffffffffffffffffffffffffffffffffff167f8be0079c531659141344cd1fd0a4f28419497f9722a3daafe3b4186f6b6457e060405160405180910390a35050565b600073ffffffffffffffffffffffffffffffffffffffff168273ffffffffffffffffffffffffffffffffffffffff1603620002895760006040517fec442f0500000000000000000000000000000000000000000000000000000000815260040162000280919062000877565b60405180910390fd5b6200029d60008383620002a160201b60201c565b5050565b600073ffffffffffffffffffffffffffffffffffffffff168373ffffffffffffffffffffffffffffffffffffffff1603620002f7578060026000828254620002ea9190620008c3565b92505081905550620003cd565b60008060008573ffffffffffffffffffffffffffffffffffffffff1673ffffffffffffffffffffffffffffffffffffffff1681526020019081526020016000205490508181101562000386578381836040517fe450d38c0000000000000000000000000000000000000000000000000000000081526004016200037d939291906200090f565b60405180910390fd5b8181036000808673ffffffffffffffffffffffffffffffffffffffff1673ffffffffffffffffffffffffffffffffffffffff16815260200190815260200160002081905550505b600073ffffffffffffffffffffffffffffffffffffffff168273ffffffffffffffffffffffffffffffffffffffff160362000418578060026000828254039250508190555062000465565b806000808473ffffffffffffffffffffffffffffffffffffffff1673ffffffffffffffffffffffffffffffffffffffff168152602001908152602001600020600082825401925050819055505b8173ffffffffffffffffffffffffffffffffffffffff168373ffffffffffffffffffffffffffffffffffffffff167fddf252ad1be2c89b69c2b068fc378daa952ba7f163c4a11628f55a4df523b3ef83604051620004c491906200094c565b60405180910390a3505050565b600081519050919050565b7f4e487b7100000000000000000000000000000000000000000000000000000000600052604160045260246000fd5b7f4e487b7100000000000000000000000000000000000000000000000000000000600052602260045260246000fd5b600060028204905060018216806200055357607f821691505b6020821081036200056957620005686200050b565b5b50919050565b60008190508160005260206000209050919050565b60006020601f8301049050919050565b600082821b905092915050565b600060088302620005d37fffffffffffffffffffffffffffffffffffffffffffffffffffffffffffffffff8262000594565b620005df868362000594565b95508019841693508086168417925050509392505050565b6000819050919050565b6000819050919050565b60006200062c620006266200062084620005f7565b62000601565b620005f7565b9050919050565b6000819050919050565b62000648836200060b565b62000660620006578262000633565b848454620005a1565b825550505050565b600090565b6200067762000668565b620006848184846200063d565b505050565b5b81811015620006ac57620006a06000826200066d565b6001810190506200068a565b5050565b601f821115620006fb57620006c5816200056f565b620006d08462000584565b81016020851015620006e0578190505b620006f8620006ef8562000584565b83018262000689565b50505b505050565b600082821c905092915050565b6000620007206000198460080262000700565b1980831691505092915050565b60006200073b83836200070d565b9150826002028217905092915050565b6200075682620004d1565b67ffffffffffffffff811115620007725762000771620004dc565b5b6200077e82546200053a565b6200078b828285620006b0565b600060209050601f831160018114620007c35760008415620007ae578287015190505b620007ba85826200072d565b8655506200082a565b601f198416620007d3866200056f565b60005b82811015620007fd57848901518255600182019150602085019450602081019050620007d6565b868310156200081d578489015162000819601f8916826200070d565b8355505b6001600288020188555050505b505050505050565b600073ffffffffffffffffffffffffffffffffffffffff82169050919050565b60006200085f8262000832565b9050919050565b620008718162000852565b82525050565b60006020820190506200088e600083018462000866565b92915050565b7f4e487b7100000000000000000000000000000000000000000000000000000000600052601160045260246000fd5b6000620008d082620005f7565b9150620008dd83620005f7565b9250828201905080821115620008f857620008f762000894565b5b92915050565b6200090981620005f7565b82525050565b600060608201905062000926600083018662000866565b620009356020830185620008fe565b620009446040830184620008fe565b949350505050565b6000602082019050620009636000830184620008fe565b92915050565b6111e180620009796000396000f3fe608060405234801561001057600080fd5b50600436106100ea5760003560e01c806370a082311161008c57806395d89b411161006657806395d89b411461023b578063a9059cbb14610259578063dd62ed3e14610289578063f2fde38b146102b9576100ea565b806370a08231146101e3578063715018a6146102135780638da5cb5b1461021d576100ea565b806323b872dd116100c857806323b872dd1461015b5780632ff2e9dc1461018b578063313ce567146101a957806340c10f19146101c7576100ea565b806306fdde03146100ef578063095ea7b31461010d57806318160ddd1461013d575b600080fd5b6100f76102d5565b6040516101049190610e35565b60405180910390f35b61012760048036038101906101229190610ef0565b610367565b6040516101349190610f4b565b60405180910390f35b61014561038a565b6040516101529190610f75565b60405180910390f35b61017560048036038101906101709190610f90565b610394565b6040516101829190610f4b565b60405180910390f35b6101936103c3565b6040516101a09190610f75565b60405180910390f35b6101b16103d1565b6040516101be9190610fff565b60405180910390f35b6101e160048036038101906101dc9190610ef0565b6103da565b005b6101fd60048036038101906101f8919061101a565b6103f0565b60405161020a9190610f75565b60405180910390f35b61021b610438565b005b61022561044c565b6040516102329190611056565b60405180910390f35b610243610476565b6040516102509190610e35565b60405180910390f35b610273600480360381019061026e9190610ef0565b610508565b6040516102809190610f4b565b60405180910390f35b6102a3600480360381019061029e9190611071565b61052b565b6040516102b09190610f75565b60405180910390f35b6102d360048036038101906102ce919061101a565b6105b2565b005b6060600380546102e4906110e0565b80601f0160208091040260200160405190810160405280929190818152602001828054610310906110e0565b801561035d5780601f106103325761010080835404028352916020019161035d565b820191906000526020600020905b81548152906001019060200180831161034057829003601f168201915b5050505050905090565b600080610372610638565b905061037f818585610640565b600191505092915050565b6000600254905090565b60008061039f610638565b90506103ac858285610652565b6103b78585856106e6565b60019150509392505050565b69d3c21bcecceda100000081565b60006012905090565b6103e26107da565b6103ec8282610861565b5050565b60008060008373ffffffffffffffffffffffffffffffffffffffff1673ffffffffffffffffffffffffffffffffffffffff168152602001908152602001600020549050919050565b6104406107da565b61044a60006108e3565b565b6000600560009054906101000a900473ffffffffffffffffffffffffffffffffffffffff16905090565b606060048054610485906110e0565b80601f01602080910402602001604051908101604052809291908181526020018280546104b1906110e0565b80156104fe5780601f106104d3576101008083540402835291602001916104fe565b820191906000526020600020905b8154815290600101906020018083116104e157829003601f168201915b5050505050905090565b600080610513610638565b90506105208185856106e6565b600191505092915050565b6000600160008473ffffffffffffffffffffffffffffffffffffffff1673ffffffffffffffffffffffffffffffffffffffff16815260200190815260200160002060008373ffffffffffffffffffffffffffffffffffffffff1673ffffffffffffffffffffffffffffffffffffffff16815260200190815260200160002054905092915050565b6105ba6107da565b600073ffffffffffffffffffffffffffffffffffffffff168173ffffffffffffffffffffffffffffffffffffffff160361062c5760006040517f1e4fbdf70000000000000000000000000000000000000000000000000000000081526004016106239190611056565b60405180910390fd5b610635816108e3565b50565b600033905090565b61064d83838360016109a9565b505050565b600061065e848461052b565b90507fffffffffffffffffffffffffffffffffffffffffffffffffffffffffffffffff81146106e057818110156106d0578281836040517ffb8f41b20000000000000000000000000000000000000000000000000000000081526004016106c793929190611111565b60405180910390fd5b6106df848484840360006109a9565b5b50505050565b600073ffffffffffffffffffffffffffffffffffffffff168373ffffffffffffffffffffffffffffffffffffffff16036107585760006040517f96c6fd1e00000000000000000000000000000000000000000000000000000000815260040161074f9190611056565b60405180910390fd5b600073ffffffffffffffffffffffffffffffffffffffff168273ffffffffffffffffffffffffffffffffffffffff16036107ca5760006040517fec442f050000000000000000000000000000000000000000000000000000000081526004016107c19190611056565b60405180910390fd5b6107d5838383610b80565b505050565b6107e2610638565b73ffffffffffffffffffffffffffffffffffffffff1661080061044c565b73ffffffffffffffffffffffffffffffffffffffff161461085f57610823610638565b6040517f118cdaa70000000000000000000000000000000000000000000000000000000081526004016108569190611056565b60405180910390fd5b565b600073ffffffffffffffffffffffffffffffffffffffff168273ffffffffffffffffffffffffffffffffffffffff16036108d35760006040517fec442f050000000000000000000000000000000000000000000000000000000081526004016108ca9190611056565b60405180910390fd5b6108df60008383610b80565b5050565b6000600560009054906101000a900473ffffffffffffffffffffffffffffffffffffffff16905081600560006101000a81548173ffffffffffffffffffffffffffffffffffffffff021916908373ffffffffffffffffffffffffffffffffffffffff1602179055508173ffffffffffffffffffffffffffffffffffffffff168173ffffffffffffffffffffffffffffffffffffffff167f8be0079c531659141344cd1fd0a4f28419497f9722a3daafe3b4186f6b6457e060405160405180910390a35050565b600073ffffffffffffffffffffffffffffffffffffffff168473ffffffffffffffffffffffffffffffffffffffff1603610a1b5760006040517fe602df05000000000000000000000000000000000000000000000000000000008152600401610a129190611056565b60405180910390fd5b600073ffffffffffffffffffffffffffffffffffffffff168373ffffffffffffffffffffffffffffffffffffffff1603610a8d5760006040517f94280d62000000000000000000000000000000000000000000000000000000008152600401610a849190611056565b60405180910390fd5b81600160008673ffffffffffffffffffffffffffffffffffffffff1673ffffffffffffffffffffffffffffffffffffffff16815260200190815260200160002060008573ffffffffffffffffffffffffffffffffffffffff1673ffffffffffffffffffffffffffffffffffffffff168152602001908152602001600020819055508015610b7a578273ffffffffffffffffffffffffffffffffffffffff168473ffffffffffffffffffffffffffffffffffffffff167f8c5be1e5ebec7d5bd14f71427d1e84f3dd0314c0f7b2291e5b200ac8c7c3b92584604051610b719190610f75565b60405180910390a35b50505050565b600073ffffffffffffffffffffffffffffffffffffffff168373ffffffffffffffffffffffffffffffffffffffff1603610bd2578060026000828254610bc69190611177565b92505081905550610ca5565b60008060008573ffffffffffffffffffffffffffffffffffffffff1673ffffffffffffffffffffffffffffffffffffffff16815260200190815260200160002054905081811015610c5e578381836040517fe450d38c000000000000000000000000000000000000000000000000000000008152600401610c5593929190611111565b60405180910390fd5b8181036000808673ffffffffffffffffffffffffffffffffffffffff1673ffffffffffffffffffffffffffffffffffffffff16815260200190815260200160002081905550505b600073ffffffffffffffffffffffffffffffffffffffff168273ffffffffffffffffffffffffffffffffffffffff1603610cee5780600260008282540392505081905550610d3b565b806000808473ffffffffffffffffffffffffffffffffffffffff1673ffffffffffffffffffffffffffffffffffffffff168152602001908152602001600020600082825401925050819055505b8173ffffffffffffffffffffffffffffffffffffffff168373ffffffffffffffffffffffffffffffffffffffff167fddf252ad1be2c89b69c2b068fc378daa952ba7f163c4a11628f55a4df523b3ef83604051610d989190610f75565b60405180910390a3505050565b600081519050919050565b600082825260208201905092915050565b60005b83811015610ddf578082015181840152602081019050610dc4565b60008484015250505050565b6000601f19601f8301169050919050565b6000610e0782610da5565b610e118185610db0565b9350610e21818560208601610dc1565b610e2a81610deb565b840191505092915050565b60006020820190508181036000830152610e4f8184610dfc565b905092915050565b600080fd5b600073ffffffffffffffffffffffffffffffffffffffff82169050919050565b6000610e8782610e5c565b9050919050565b610e9781610e7c565b8114610ea257600080fd5b50565b600081359050610eb481610e8e565b92915050565b6000819050919050565b610ecd81610eba565b8114610ed857600080fd5b50565b600081359050610eea81610ec4565b92915050565b60008060408385031215610f0757610f06610e57565b5b6000610f1585828601610ea5565b9250506020610f2685828601610edb565b9150509250929050565b60008115159050919050565b610f4581610f30565b82525050565b6000602082019050610f606000830184610f3c565b92915050565b610f6f81610eba565b82525050565b6000602082019050610f8a6000830184610f66565b92915050565b600080600060608486031215610fa957610fa8610e57565b5b6000610fb786828701610ea5565b9350506020610fc886828701610ea5565b9250506040610fd986828701610edb565b9150509250925092565b600060ff82169050919050565b610ff981610fe3565b82525050565b60006020820190506110146000830184610ff0565b92915050565b6000602082840312156110305761102f610e57565b5b600061103e84828501610ea5565b91505092915050565b61105081610e7c565b82525050565b600060208201905061106b6000830184611047565b92915050565b6000806040838503121561108857611087610e57565b5b600061109685828601610ea5565b92505060206110a785828601610ea5565b9150509250929050565b7f4e487b7100000000000000000000000000000000000000000000000000000000600052602260045260246000fd5b600060028204905060018216806110f857607f821691505b60208210810361110b5761110a6110b1565b5b50919050565b60006060820190506111266000830186611047565b6111336020830185610f66565b6111406040830184610f66565b949350505050565b7f4e487b7100000000000000000000000000000000000000000000000000000000600052601160045260246000fd5b600061118282610eba565b915061118d83610eba565b92508282019050808211156111a5576111a4611148565b5b9291505056fea2646970667358221220fcc8a7212ec1bc1f2bd56af2d6bf9ef91202662227921f99c314f0dce70bb0c464736f6c63430008140033",
  "linkReferences": {},
  "deployedLinkReferences": {}
}